{
  "contractName": "App",
  "abi": [
    {
      "constant": false,
      "inputs": [
        {
          "name": "_fName",
          "type": "bytes32"
        },
        {
          "name": "_occupation",
          "type": "bytes32"
        },
        {
          "name": "_income",
          "type": "uint256"
        },
        {
          "name": "_dob",
          "type": "bytes11"
        },
        {
          "name": "_gender",
          "type": "bytes1"
        },
        {
          "name": "_rAddress1",
          "type": "bytes32"
        },
        {
          "name": "_rAddress2",
          "type": "bytes32"
        },
        {
          "name": "_mobile",
          "type": "uint256"
        },
        {
          "name": "_email",
          "type": "bytes32"
        },
        {
          "name": "_country",
          "type": "bytes32"
        },
        {
          "name": "_photo",
          "type": "string"
        }
      ],
      "name": "addPerson",
      "outputs": [],
      "payable": true,
      "stateMutability": "payable",
      "type": "function"
    },
    {
      "constant": true,
      "inputs": [],
      "name": "personVerificationRequestByMe",
      "outputs": [
        {
          "name": "",
          "type": "uint256[]"
        }
      ],
      "payable": false,
      "stateMutability": "view",
      "type": "function"
    },
    {
      "constant": false,
      "inputs": [
        {
          "name": "_sender",
          "type": "address"
        },
        {
          "name": "_canView",
          "type": "bool"
        },
        {
          "name": "_canModify",
          "type": "bool"
        },
        {
          "name": "_canModifyDocument",
          "type": "bool"
        }
      ],
      "name": "updateProfileRequest",
      "outputs": [],
      "payable": true,
      "stateMutability": "payable",
      "type": "function"
    },
    {
      "constant": true,
      "inputs": [
        {
          "name": "",
          "type": "bytes32"
        }
      ],
      "name": "documents",
      "outputs": [
        {
          "name": "name",
          "type": "bytes32"
        },
        {
          "name": "document",
          "type": "bytes32"
        },
        {
          "name": "ext",
          "type": "bytes11"
        },
        {
          "name": "issuer",
          "type": "address"
        },
        {
          "name": "recipient",
          "type": "address"
        },
        {
          "name": "status",
          "type": "uint8"
        },
        {
          "name": "comments",
          "type": "string"
        }
      ],
      "payable": false,
      "stateMutability": "view",
      "type": "function"
    },
    {
      "constant": false,
      "inputs": [
        {
          "name": "_person",
          "type": "address"
        },
        {
          "name": "_requestTo",
          "type": "address"
        }
      ],
      "name": "personVerificationRequest",
      "outputs": [],
      "payable": true,
      "stateMutability": "payable",
      "type": "function"
    },
    {
      "constant": true,
      "inputs": [],
      "name": "isEntityExist",
      "outputs": [
        {
          "name": "",
          "type": "bool"
        }
      ],
      "payable": false,
      "stateMutability": "view",
      "type": "function"
    },
    {
      "constant": false,
      "inputs": [
        {
          "name": "_photo",
          "type": "string"
        },
        {
          "name": "_person",
          "type": "address"
        }
      ],
      "name": "addPersonPhoto",
      "outputs": [],
      "payable": true,
      "stateMutability": "payable",
      "type": "function"
    },
    {
      "constant": true,
      "inputs": [],
      "name": "personProfileRequests",
      "outputs": [
        {
          "name": "",
          "type": "address[]"
        }
      ],
      "payable": false,
      "stateMutability": "view",
      "type": "function"
    },
    {
      "constant": false,
      "inputs": [
        {
          "name": "_document",
          "type": "bytes32"
        },
        {
          "name": "_ext",
          "type": "bytes11"
        },
        {
          "name": "_recipient",
          "type": "address"
        },
        {
          "name": "_name",
          "type": "bytes32"
        },
        {
          "name": "_comment",
          "type": "string"
        }
      ],
      "name": "issueDocument",
      "outputs": [],
      "payable": true,
      "stateMutability": "payable",
      "type": "function"
    },
    {
      "constant": false,
      "inputs": [
        {
          "name": "_document",
          "type": "bytes32"
        },
        {
          "name": "_comment",
          "type": "string"
        }
      ],
      "name": "approveDocument",
      "outputs": [],
      "payable": true,
      "stateMutability": "payable",
      "type": "function"
    },
    {
      "constant": true,
      "inputs": [
        {
          "name": "_password",
          "type": "bytes32"
        }
      ],
      "name": "authenticatePerson",
      "outputs": [
        {
          "name": "",
          "type": "bool"
        }
      ],
      "payable": false,
      "stateMutability": "view",
      "type": "function"
    },
    {
      "constant": false,
      "inputs": [
        {
          "name": "_pid",
          "type": "uint256"
        },
        {
          "name": "_target",
          "type": "address"
        }
      ],
      "name": "sharePersonVerificationResult",
      "outputs": [],
      "payable": true,
      "stateMutability": "payable",
      "type": "function"
    },
    {
      "constant": true,
      "inputs": [
        {
          "name": "_id",
          "type": "uint256"
        }
      ],
      "name": "personVerificationDetails",
      "outputs": [
        {
          "name": "",
          "type": "address"
        },
        {
          "name": "",
          "type": "bytes32"
        },
        {
          "name": "",
          "type": "bytes1"
        },
        {
          "name": "",
          "type": "bytes32"
        },
        {
          "name": "",
          "type": "address"
        },
        {
          "name": "",
          "type": "bytes32"
        },
        {
          "name": "",
          "type": "uint256"
        },
        {
          "name": "",
          "type": "string"
        },
        {
          "name": "",
          "type": "address"
        },
        {
          "name": "",
          "type": "bytes32"
        },
        {
          "name": "",
          "type": "uint256"
        }
      ],
      "payable": false,
      "stateMutability": "view",
      "type": "function"
    },
    {
      "constant": true,
      "inputs": [],
      "name": "isPersonExist",
      "outputs": [
        {
          "name": "",
          "type": "bool"
        }
      ],
      "payable": false,
      "stateMutability": "view",
      "type": "function"
    },
    {
      "constant": false,
      "inputs": [
        {
          "name": "_name",
          "type": "bytes32"
        },
        {
          "name": "_password",
          "type": "bytes32"
        },
        {
          "name": "_regNo",
          "type": "bytes32"
        },
        {
          "name": "_etype",
          "type": "uint256"
        }
      ],
      "name": "addEntity",
      "outputs": [],
      "payable": true,
      "stateMutability": "payable",
      "type": "function"
    },
    {
      "constant": false,
      "inputs": [
        {
          "name": "_fName",
          "type": "bytes32"
        },
        {
          "name": "_occupation",
          "type": "bytes32"
        },
        {
          "name": "_income",
          "type": "uint256"
        },
        {
          "name": "_dob",
          "type": "bytes11"
        },
        {
          "name": "_gender",
          "type": "bytes1"
        },
        {
          "name": "_rAddress1",
          "type": "bytes32"
        },
        {
          "name": "_rAddress2",
          "type": "bytes32"
        },
        {
          "name": "_mobile",
          "type": "uint256"
        },
        {
          "name": "_email",
          "type": "bytes32"
        },
        {
          "name": "_country",
          "type": "bytes32"
        },
        {
          "name": "_photo",
          "type": "string"
        }
      ],
      "name": "updatePerson",
      "outputs": [],
      "payable": true,
      "stateMutability": "payable",
      "type": "function"
    },
    {
      "constant": false,
      "inputs": [],
      "name": "destroy",
      "outputs": [],
      "payable": false,
      "stateMutability": "nonpayable",
      "type": "function"
    },
    {
      "constant": true,
      "inputs": [
        {
          "name": "",
          "type": "address"
        }
      ],
      "name": "persons",
      "outputs": [
        {
          "name": "addrs",
          "type": "address"
        },
        {
          "name": "password",
          "type": "bytes32"
        },
        {
          "name": "photo",
          "type": "string"
        },
        {
          "name": "fName",
          "type": "bytes32"
        },
        {
          "name": "occupation",
          "type": "bytes32"
        },
        {
          "name": "income",
          "type": "uint256"
        },
        {
          "name": "dob",
          "type": "bytes11"
        },
        {
          "name": "gender",
          "type": "bytes1"
        },
        {
          "name": "rAddress1",
          "type": "bytes32"
        },
        {
          "name": "rAddress2",
          "type": "bytes32"
        },
        {
          "name": "mobile",
          "type": "uint256"
        },
        {
          "name": "email",
          "type": "bytes32"
        },
        {
          "name": "country",
          "type": "bytes32"
        }
      ],
      "payable": false,
      "stateMutability": "view",
      "type": "function"
    },
    {
      "constant": true,
      "inputs": [],
      "name": "owner",
      "outputs": [
        {
          "name": "",
          "type": "address"
        }
      ],
      "payable": false,
      "stateMutability": "view",
      "type": "function"
    },
    {
      "constant": true,
      "inputs": [],
      "name": "getPerson",
      "outputs": [
        {
          "name": "",
          "type": "address"
        },
        {
          "name": "",
          "type": "bytes32"
        },
        {
          "name": "",
          "type": "bytes32"
        },
        {
          "name": "",
          "type": "uint256"
        },
        {
          "name": "",
          "type": "bytes11"
        },
        {
          "name": "",
          "type": "bytes1"
        },
        {
          "name": "",
          "type": "bytes32"
        },
        {
          "name": "",
          "type": "bytes32"
        },
        {
          "name": "",
          "type": "uint256"
        },
        {
          "name": "",
          "type": "bytes32"
        },
        {
          "name": "",
          "type": "bytes32"
        },
        {
          "name": "",
          "type": "string"
        },
        {
          "name": "",
          "type": "bytes32[]"
        }
      ],
      "payable": false,
      "stateMutability": "view",
      "type": "function"
    },
    {
      "constant": false,
      "inputs": [
        {
          "name": "_sender",
          "type": "address"
        }
      ],
      "name": "deleteProfileRequest",
      "outputs": [],
      "payable": true,
      "stateMutability": "payable",
      "type": "function"
    },
    {
      "constant": true,
      "inputs": [],
      "name": "enrollment",
      "outputs": [
        {
          "name": "",
          "type": "address[]"
        }
      ],
      "payable": false,
      "stateMutability": "view",
      "type": "function"
    },
    {
      "constant": true,
      "inputs": [
        {
          "name": "_sender",
          "type": "address"
        }
      ],
      "name": "profileRequestDetails",
      "outputs": [
        {
          "name": "",
          "type": "address"
        },
        {
          "name": "",
          "type": "bytes32"
        },
        {
          "name": "",
          "type": "uint256"
        },
        {
          "name": "",
          "type": "bytes32"
        },
        {
          "name": "",
          "type": "bytes1"
        },
        {
          "name": "",
          "type": "bytes32"
        },
        {
          "name": "",
          "type": "bool"
        },
        {
          "name": "",
          "type": "bool"
        },
        {
          "name": "",
          "type": "bool"
        }
      ],
      "payable": false,
      "stateMutability": "view",
      "type": "function"
    },
    {
      "constant": false,
      "inputs": [
        {
          "name": "_person",
          "type": "address"
        }
      ],
      "name": "enrollPerson",
      "outputs": [],
      "payable": true,
      "stateMutability": "payable",
      "type": "function"
    },
    {
      "constant": false,
      "inputs": [
        {
          "name": "_password",
          "type": "bytes32"
        }
      ],
      "name": "setPassword",
      "outputs": [],
      "payable": true,
      "stateMutability": "payable",
      "type": "function"
    },
    {
      "constant": false,
      "inputs": [
        {
          "name": "_canView",
          "type": "bool"
        },
        {
          "name": "_canModify",
          "type": "bool"
        },
        {
          "name": "_sender",
          "type": "address"
        }
      ],
      "name": "documentRequest",
      "outputs": [],
      "payable": true,
      "stateMutability": "payable",
      "type": "function"
    },
    {
      "constant": true,
      "inputs": [
        {
          "name": "_document",
          "type": "bytes32"
        }
      ],
      "name": "getDocument",
      "outputs": [
        {
          "name": "",
          "type": "bytes32"
        },
        {
          "name": "",
          "type": "bytes32"
        },
        {
          "name": "",
          "type": "bytes11"
        },
        {
          "name": "",
          "type": "bytes32"
        },
        {
          "name": "",
          "type": "bytes32"
        },
        {
          "name": "",
          "type": "uint256"
        },
        {
          "name": "",
          "type": "string"
        }
      ],
      "payable": false,
      "stateMutability": "view",
      "type": "function"
    },
    {
      "constant": true,
      "inputs": [
        {
          "name": "_password",
          "type": "bytes32"
        }
      ],
      "name": "authenticateEntity",
      "outputs": [
        {
          "name": "",
          "type": "bool"
        },
        {
          "name": "",
          "type": "uint256"
        }
      ],
      "payable": false,
      "stateMutability": "view",
      "type": "function"
    },
    {
      "constant": false,
      "inputs": [
        {
          "name": "_person",
          "type": "address"
        },
        {
          "name": "_canView",
          "type": "bool"
        },
        {
          "name": "_canModify",
          "type": "bool"
        },
        {
          "name": "_canModifyDocument",
          "type": "bool"
        }
      ],
      "name": "addProfileRequest",
      "outputs": [],
      "payable": false,
      "stateMutability": "nonpayable",
      "type": "function"
    },
    {
      "constant": false,
      "inputs": [
        {
          "name": "_document",
          "type": "bytes32"
        },
        {
          "name": "_person",
          "type": "address"
        }
      ],
      "name": "removeDocument",
      "outputs": [],
      "payable": true,
      "stateMutability": "payable",
      "type": "function"
    },
    {
      "constant": false,
      "inputs": [
        {
          "name": "_person",
          "type": "address"
        },
        {
          "name": "_comments",
          "type": "string"
        }
      ],
      "name": "approvePersonVerificationDetails",
      "outputs": [],
      "payable": true,
      "stateMutability": "payable",
      "type": "function"
    },
    {
      "constant": false,
      "inputs": [
        {
          "name": "_document",
          "type": "bytes32"
        },
        {
          "name": "_comment",
          "type": "string"
        }
      ],
      "name": "rejectDocument",
      "outputs": [],
      "payable": true,
      "stateMutability": "payable",
      "type": "function"
    },
    {
      "constant": false,
      "inputs": [
        {
          "name": "newOwner",
          "type": "address"
        }
      ],
      "name": "transferOwnership",
      "outputs": [],
      "payable": false,
      "stateMutability": "nonpayable",
      "type": "function"
    },
    {
      "constant": false,
      "inputs": [
        {
          "name": "_recipient",
          "type": "address"
        }
      ],
      "name": "destroyAndSend",
      "outputs": [],
      "payable": false,
      "stateMutability": "nonpayable",
      "type": "function"
    },
    {
      "constant": true,
      "inputs": [],
      "name": "personVerificationRequestForMe",
      "outputs": [
        {
          "name": "",
          "type": "uint256[]"
        }
      ],
      "payable": false,
      "stateMutability": "view",
      "type": "function"
    },
    {
      "constant": true,
      "inputs": [],
      "name": "getEntity",
      "outputs": [
        {
          "name": "",
          "type": "address"
        },
        {
          "name": "",
          "type": "bytes32"
        },
        {
          "name": "",
          "type": "bytes32"
        },
        {
          "name": "",
          "type": "uint256"
        },
        {
          "name": "",
          "type": "uint256"
        }
      ],
      "payable": false,
      "stateMutability": "view",
      "type": "function"
    },
    {
      "anonymous": false,
      "inputs": [
        {
          "indexed": false,
          "name": "document",
          "type": "bytes32"
        },
        {
          "indexed": false,
          "name": "recipient",
          "type": "address"
        },
        {
          "indexed": false,
          "name": "name",
          "type": "bytes32"
        },
        {
          "indexed": false,
          "name": "comments",
          "type": "string"
        }
      ],
      "name": "DocumentIssued",
      "type": "event"
    },
    {
      "anonymous": false,
      "inputs": [
        {
          "indexed": false,
          "name": "document",
          "type": "bytes32"
        },
        {
          "indexed": false,
          "name": "approver",
          "type": "address"
        },
        {
          "indexed": false,
          "name": "comments",
          "type": "string"
        }
      ],
      "name": "DocumentApproved",
      "type": "event"
    },
    {
      "anonymous": false,
      "inputs": [
        {
          "indexed": false,
          "name": "document",
          "type": "bytes32"
        },
        {
          "indexed": false,
          "name": "approver",
          "type": "address"
        },
        {
          "indexed": false,
          "name": "comments",
          "type": "string"
        }
      ],
      "name": "DocumentRejected",
      "type": "event"
    },
    {
      "anonymous": false,
      "inputs": [
        {
          "indexed": false,
          "name": "addrs",
          "type": "address"
        },
        {
          "indexed": false,
          "name": "fName",
          "type": "bytes32"
        },
        {
          "indexed": false,
          "name": "occupation",
          "type": "bytes32"
        },
        {
          "indexed": false,
          "name": "income",
          "type": "uint256"
        },
        {
          "indexed": false,
          "name": "dob",
          "type": "bytes11"
        },
        {
          "indexed": false,
          "name": "gender",
          "type": "bytes1"
        },
        {
          "indexed": false,
          "name": "rAddress1",
          "type": "bytes32"
        },
        {
          "indexed": false,
          "name": "rAddress2",
          "type": "bytes32"
        },
        {
          "indexed": false,
          "name": "mobile",
          "type": "uint256"
        },
        {
          "indexed": false,
          "name": "email",
          "type": "bytes32"
        },
        {
          "indexed": false,
          "name": "country",
          "type": "bytes32"
        }
      ],
      "name": "PersonAdded",
      "type": "event"
    },
    {
      "anonymous": false,
      "inputs": [
        {
          "indexed": false,
          "name": "addrs",
          "type": "address"
        },
        {
          "indexed": false,
          "name": "fName",
          "type": "bytes32"
        },
        {
          "indexed": false,
          "name": "occupation",
          "type": "bytes32"
        },
        {
          "indexed": false,
          "name": "income",
          "type": "uint256"
        },
        {
          "indexed": false,
          "name": "dob",
          "type": "bytes11"
        },
        {
          "indexed": false,
          "name": "gender",
          "type": "bytes1"
        },
        {
          "indexed": false,
          "name": "rAddress1",
          "type": "bytes32"
        },
        {
          "indexed": false,
          "name": "rAddress2",
          "type": "bytes32"
        },
        {
          "indexed": false,
          "name": "mobile",
          "type": "uint256"
        },
        {
          "indexed": false,
          "name": "email",
          "type": "bytes32"
        },
        {
          "indexed": false,
          "name": "country",
          "type": "bytes32"
        }
      ],
      "name": "PersonUpdated",
      "type": "event"
    },
    {
      "anonymous": false,
      "inputs": [
        {
          "indexed": false,
          "name": "addrs",
          "type": "address"
        },
        {
          "indexed": false,
          "name": "name",
          "type": "bytes32"
        },
        {
          "indexed": false,
          "name": "regNo",
          "type": "bytes32"
        },
        {
          "indexed": false,
          "name": "etype",
          "type": "uint256"
        }
      ],
      "name": "EntityAdded",
      "type": "event"
    },
    {
      "anonymous": false,
      "inputs": [
        {
          "indexed": true,
          "name": "previousOwner",
          "type": "address"
        },
        {
          "indexed": true,
          "name": "newOwner",
          "type": "address"
        }
      ],
      "name": "OwnershipTransferred",
      "type": "event"
    }
  ],
  "bytecode": "0x606060405260008054600160a060020a033316600160a060020a0319909116179055613d7d806100306000396000f3006060604052600436106101c15763ffffffff7c01000000000000000000000000000000000000000000000000000000006000350416630227b36281146101c65780630467b1f3146102515780631e1e1517146102b75780632b2805db146102da5780632c83234a146103cb5780632d3924d6146103e557806334b28f301461040c5780633d282e9b1461045d5780633d69443d14610470578063469d3eb8146104dc5780634b68f09414610527578063536992761461053d5780635545d175146105545780635962149614610648578063667c94e71461065b5780636b55fef21461066f57806383197ef0146106f85780638ada2cf61461070b5780638da5cb5b146108335780638ec4dc95146108625780639131971d146109aa5780639661819c146109be5780639d09c291146109d15780639e6a93f214610a545780639f39154414610a68578063a6d194f614610a73578063b10d6b4114610a91578063b234feb814610b56578063cf1c1fd314610b86578063dd3e741614610bb4578063e5a8d93714610bcb578063f2539c7c14610c1f578063f2fde38b14610c6a578063f5074f4114610c89578063fd4c6e7f14610ca8578063ff200d2b14610cbb575b600080fd5b61024f6004803590602480359160443591600160a860020a03196064351691600160f860020a0319608435169160a4359160c4359160e435916101043591610124359190610164906101443590810190830135806020601f82018190048102016040519081016040528181529291906020840183838082843750949650610d0995505050505050565b005b341561025c57600080fd5b610264610ee3565b60405160208082528190810183818151815260200191508051906020019060200280838360005b838110156102a357808201518382015260200161028b565b505050509050019250505060405180910390f35b61024f600160a060020a0360043516602435151560443515156064351515610ff3565b34156102e557600080fd5b6102f06004356111b0565b60405187815260208101879052600160a860020a031986166040820152600160a060020a0380861660608301528416608082015260a0810183600281111561033457fe5b60ff16815260408282038101602083019081528454600260018216156101000260001901909116049183018290529160600190849080156103b65780601f1061038b576101008083540402835291602001916103b6565b820191906000526020600020905b81548152906001019060200180831161039957829003601f168201915b50509850505050505050505060405180910390f35b61024f600160a060020a0360043581169060243516611205565b34156103f057600080fd5b6103f8611431565b604051901515815260200160405180910390f35b61024f60046024813581810190830135806020601f8201819004810201604051908101604052818152929190602084018383808284375094965050509235600160a060020a03169250611466915050565b341561046857600080fd5b6102646114fb565b61024f600480359060248035600160a860020a03191691604435600160a060020a031691606435919060a49060843590810190830135806020601f8201819004810201604051908101604052818152929190602084018383808284375094965061161495505050505050565b61024f600480359060446024803590810190830135806020601f8201819004810201604051908101604052818152929190602084018383808284375094965061185595505050505050565b341561053257600080fd5b6103f86004356119c0565b61024f600435600160a060020a03602435166119f8565b341561055f57600080fd5b61056a600435611d69565b604051600160a060020a03808d168252602082018c9052600160f860020a03198b166040830152606082018a9052888116608083015260a0820188905260c0820187905284166101008201526101208101839052610140810182905261016060e0820181815290820186818151815260200191508051906020019080838360005b838110156106035780820151838201526020016105eb565b50505050905090810190601f1680156106305780820380516001836020036101000a031916815260200191505b509c5050505050505050505050505060405180910390f35b341561065357600080fd5b6103f861213a565b61024f600435602435604435606435612165565b61024f6004803590602480359160443591600160a860020a03196064351691600160f860020a0319608435169160a4359160c4359160e435916101043591610124359190610164906101443590810190830135806020601f8201819004810201604051908101604052818152929190602084018383808284375094965061229695505050505050565b341561070357600080fd5b61024f612447565b341561071657600080fd5b61072a600160a060020a0360043516612470565b604051600160a060020a038e168152602081018d9052606081018b9052608081018a905260a08101899052600160a860020a0319881660c0820152600160f860020a0319871660e082015261010080820187905261012082018690526101408201859052610160820184905261018082018390526101a0604083018181528e54600260018216159094026000190116929092049083018190526101c08301908e9080156108185780601f106107ed57610100808354040283529160200191610818565b820191906000526020600020905b8154815290600101906020018083116107fb57829003601f168201915b50509e50505050505050505050505050505060405180910390f35b341561083e57600080fd5b6108466124e7565b604051600160a060020a03909116815260200160405180910390f35b341561086d57600080fd5b6108756124f6565b604051600160a060020a038e168152602081018d9052604081018c9052606081018b9052600160a860020a03198a166080820152600160f860020a0319891660a082015260c0810188905260e081018790526101008101869052610120810185905261014081018490526101a0610160820181815290610180830190830185818151815260200191508051906020019080838360005b8381101561092357808201518382015260200161090b565b50505050905090810190601f1680156109505780820380516001836020036101000a031916815260200191505b50838103825284818151815260200191508051906020019060200280838360005b83811015610989578082015183820152602001610971565b505050509050019f5050505050505050505050505050505060405180910390f35b61024f600160a060020a03600435166126d9565b34156109c957600080fd5b6102646129c9565b34156109dc57600080fd5b6109f0600160a060020a0360043516612a6c565b604051600160a060020a03909916895260208901979097526040808901969096526060880194909452600160f860020a0319909216608087015260a0860152151560c0850152151560e0840152901515610100830152610120909101905180910390f35b61024f600160a060020a0360043516612ca7565b61024f600435612d31565b61024f60043515156024351515600160a060020a0360443516612d75565b3415610a9c57600080fd5b610aa7600435612ef9565b60405187815260208101879052600160a860020a031986166040820152606081018590526080810184905260a0810183905260e060c0820181815290820183818151815260200191508051906020019080838360005b83811015610b15578082015183820152602001610afd565b50505050905090810190601f168015610b425780820380516001836020036101000a031916815260200191505b509850505050505050505060405180910390f35b3415610b6157600080fd5b610b6c600435613162565b604051911515825260208201526040908101905180910390f35b3415610b9157600080fd5b61024f600160a060020a03600435166024351515604435151560643515156131b8565b61024f600435600160a060020a03602435166133f8565b61024f60048035600160a060020a03169060446024803590810190830135806020601f8201819004810201604051908101604052818152929190602084018383808284375094965061355295505050505050565b61024f600480359060446024803590810190830135806020601f820181900481020160405190810160405281815292919060208401838380828437509496506136d395505050505050565b3415610c7557600080fd5b61024f600160a060020a036004351661380e565b3415610c9457600080fd5b61024f600160a060020a036004351661389c565b3415610cb357600080fd5b6102646138c3565b3415610cc657600080fd5b610cce613a07565b604051600160a060020a03909516855260208501939093526040808501929092526060840152608083019190915260a0909101905180910390f35b600160a060020a033381166000908152600660205260409020541615610d2e57600080fd5b6007805460018101610d408382613aa9565b5060009182526020808320919091018054600160a060020a031990811633600160a060020a031690811790925581845260069283905260409093208054909316178255600382018d9055600482018c9055600582018b9055810180546affffffffffffffffffffff191660a860020a8b04176bff00000000000000000000001916605860020a60f860020a8b0402179055600781018790556008810186905560098101859055600a8101849055600201818051610e01929160200190613acd565b50816006600033600160a060020a0316600160a060020a03168152602001908152602001600020600b0181600019169055507f5bf1e082a68d3ae0eac40b72bbe418fa9d0a46b07372d718e53fae95deca4755338c8c8c8c8c8c8c8c8c8c604051600160a060020a03909b168b5260208b01999099526040808b019890985260608a0196909652600160a860020a03199094166080890152600160f860020a031990921660a088015260c087015260e0860152610100850152610120840152610140830191909152610160909101905180910390a15050505050505050505050565b610eeb613b4b565b6000610ef5613b4b565b600033600160a060020a03161515610f0c57600080fd5b600160a060020a03338116600090815260086020526040902060010154161515610f3557600080fd5b60035460009350604051805910610f495750595b90808252806020026020018201604052509150600090505b600354811015610fec5733600160a060020a0316600382815481101515610f8457fe5b6000918252602090912060016007909202010154600160a060020a03161415610fe4576003805482908110610fb557fe5b906000526020600020906007020160000154828481518110610fd357fe5b602090810290910101526001909201915b600101610f61565b5092915050565b600033600160a060020a0316151561100a57600080fd5b600160a060020a038516151561101f57600080fd5b600160a060020a0333811660009081526006602052604090205416151561104557600080fd5b600160a060020a0385811660009081526008602052604090206001015416151561106e57600080fd5b5060005b6001548110156111a95784600160a060020a031660018281548110151561109557fe5b6000918252602090912060016004909202010154600160a060020a03161480156110ef575033600160a060020a03166001828154811015156110d357fe5b6000918252602090912060049091020154600160a060020a0316145b156111a1578360018281548110151561110457fe5b906000526020600020906004020160010160146101000a81548160ff0219169083151502179055508260018281548110151561113c57fe5b906000526020600020906004020160010160156101000a81548160ff0219169083151502179055508160018281548110151561117457fe5b906000526020600020906004020160010160166101000a81548160ff0219169083151502179055506111a9565b600101611072565b5050505050565b600460208190526000918252604090912080546001820154600283015460038401549294919360a860020a820293605860020a909204600160a060020a03908116939083169260a060020a900460ff16910187565b600160a060020a038216151561121a57600080fd5b600160a060020a0382811660009081526006602052604090205416151561124057600080fd5b33600160a060020a0316151561125557600080fd5b600160a060020a0333811660009081526008602052604090206001015416151561127e57600080fd5b600160a060020a038116151561129357600080fd5b600160a060020a038181166000908152600860205260409020600101541615156112bc57600080fd5b60038054600181016112ce8382613b5d565b9160005260206000209060070201600060e060405190810160405280600380549050815260200133600160a060020a0316815260200133600160a060020a0316815260200185600160a060020a0316815260200186600160a060020a0316815260200160206040519081016040526000808252908252602090910152919050815181556020820151600182018054600160a060020a031916600160a060020a03929092169190911790556040820151600282018054600160a060020a031916600160a060020a03929092169190911790556060820151600382018054600160a060020a031916600160a060020a03929092169190911790556080820151600482018054600160a060020a031916600160a060020a039290921691909117905560a082015181600501908051611407929160200190613acd565b5060c082015160068201805460ff1916600183600281111561142557fe5b02179055505050505050565b600160a060020a03338116600090815260086020526040812060010154909116151561145f57506000611463565b5060015b90565b600160a060020a038116151561147b57600080fd5b600160a060020a038181166000908152600660205260409020541615156114a157600080fd5b600160a060020a033381166000908152600860205260409020600101541615156114ca57600080fd5b600160a060020a03331660009081526006602052604090206002018280516114f6929160200190613acd565b505050565b611503613b4b565b600061150d613b4b565b600033600160a060020a0316151561152457600080fd5b600160a060020a0333811660009081526006602052604090205416151561154a57600080fd5b6001546000935060405180591061155e5750595b90808252806020026020018201604052509150600090505b600154811015610fec5733600160a060020a031660018281548110151561159957fe5b6000918252602090912060049091020154600160a060020a031614156116085760018054829081106115c757fe5b6000918252602090912060016004909202010154600160a060020a03168284815181106115f057fe5b600160a060020a039092166020928302909101909101525b60019283019201611576565b600085815260046020526040902060020154605860020a9004600160a060020a03161561164057600080fd5b33600160a060020a0316151561165557600080fd5b600160a060020a0383811660009081526006602052604090205416151561167b57600080fd5b600160a060020a0383166000908152600660205260409020600c018054600181016116a68382613aa9565b50600091825260209091200185905560058054600181016116c78382613aa9565b5060009182526020808320919091018790558682526004908190526040909120838155600181018790556002810180546affffffffffffffffffffff191660a860020a8804177fff0000000000000000000000000000000000000000ffffffffffffffffffffff16605860020a33600160a060020a039081169190910291909117909155600382018054600160a060020a03199081169288169283171690911774ff00000000000000000000000000000000000000001916905501818051611793929160200190613acd565b507f346ba1ebf240f6e90cde2ae08bb5a8399213fca3203638f56ac35aae20ade08785848484604051848152600160a060020a03841660208201526040810183905260806060820181815290820183818151815260200191508051906020019080838360005b838110156118115780820151838201526020016117f9565b50505050905090810190601f16801561183e5780820380516001836020036101000a031916815260200191505b509550505050505060405180910390a15050505050565b33600160a060020a0316151561186a57600080fd5b600082815260046020526040902060020154605860020a9004600160a060020a0316151561189757600080fd5b60008281526004602052604090206003015433600160a060020a039081169116146118c157600080fd5b600082815260046020819052604090912060038101805474ff0000000000000000000000000000000000000000191660a060020a1790550181805161190a929160200190613acd565b507f56972023b86190bb861a2e74abd19fe3d37b09c39162c265f867ff216cab52dc823383604051838152600160a060020a038316602082015260606040820181815290820183818151815260200191508051906020019080838360005b83811015611980578082015183820152602001611968565b50505050905090810190601f1680156119ad5780820380516001836020036101000a031916815260200191505b5094505050505060405180910390a15050565b600033600160a060020a031615156119d757600080fd5b5033600160a060020a03166000908152600660205260409020600101541490565b600033600160a060020a03161515611a0f57600080fd5b600160a060020a03338116600090815260086020526040902060010154161515611a3857600080fd5b600160a060020a0382161515611a4d57600080fd5b600160a060020a03828116600090815260086020526040902060010154161515611a7657600080fd5b5060005b6003548110156114f65782600382815481101515611a9457fe5b9060005260206000209060070201600001541415611d61576003805460018101611abe8382613b5d565b9160005260206000209060070201600060e0604051908101604090815260038054808452600160a060020a03891660208501529183019187908110611aff57fe5b600091825260209182902060026007909202010154600160a060020a0316825260038054929091019187908110611b3257fe5b60009182526020918290206003600790920201810154600160a060020a031683528054929091019187908110611b6457fe5b600091825260209182902060046007909202010154600160a060020a0316825260038054929091019187908110611b9757fe5b90600052602060002090600702016005018054600181600116156101000203166002900480601f016020809104026020016040519081016040528092919081815260200182805460018160011615610100020316600290048015611c3c5780601f10611c1157610100808354040283529160200191611c3c565b820191906000526020600020905b815481529060010190602001808311611c1f57829003601f168201915b50505050508152602001600386815481101515611c5557fe5b600091825260209091206006600790920201015460ff166002811115611c7757fe5b9052919050815181556020820151600182018054600160a060020a031916600160a060020a03929092169190911790556040820151600282018054600160a060020a031916600160a060020a03929092169190911790556060820151600382018054600160a060020a031916600160a060020a03929092169190911790556080820151600482018054600160a060020a031916600160a060020a039290921691909117905560a082015181600501908051611d36929160200190613acd565b5060c082015160068201805460ff19166001836002811115611d5457fe5b02179055505050506114f6565b600101611a7a565b6000806000806000806000611d7c613b4b565b600080808033600160a060020a03161515611d9657600080fd5b600160a060020a03338116600090815260086020526040902060010154161515611dbf57600080fd5b5060005b60035481101561212a578c600382815481101515611ddd57fe5b9060005260206000209060070201600001541415612122576003805482908110611e0357fe5b906000526020600020906007020160040160009054906101000a9004600160a060020a031660066000600384815481101515611e3b57fe5b906000526020600020906007020160040160009054906101000a9004600160a060020a0316600160a060020a0316600160a060020a031681526020019081526020016000206003015460066000600385815481101515611e9757fe5b6000918252602080832060079290920290910160040154600160a060020a03168352820192909252604001812060069081015460038054605860020a90920460f860020a02939187908110611ee857fe5b6000918252602080832060046007909302019190910154600160a060020a031683528201929092526040019020600a01546003805486908110611f2757fe5b906000526020600020906007020160020160009054906101000a9004600160a060020a031660086000600388815481101515611f5f57fe5b6000918252602080832060026007909302019190910154600160a060020a031683528201929092526040019020546003805488908110611f9b57fe5b600091825260209091206006600790920201015460ff166002811115611fbd57fe5b6003805489908110611fcb57fe5b9060005260206000209060070201600501600389815481101515611feb57fe5b60009182526020822060036007909202018101548154600160a060020a039091169260089290918d90811061201c57fe5b600091825260208083206003600790930201820154600160a060020a03168452830193909352604090910190205481549091908c90811061205957fe5b906000526020600020906007020160000154838054600181600116156101000203166002900480601f0160208091040260200160405190810160405280929190818152602001828054600181600116156101000203166002900480156121005780601f106120d557610100808354040283529160200191612100565b820191906000526020600020905b8154815290600101906020018083116120e357829003601f168201915b505050505093509b509b509b509b509b509b509b509b509b509b509b5061212a565b600101611dc3565b5091939597999b90929496989a50565b600160a060020a03338116600090815260066020526040812054909116151561145f57506000611463565b600160a060020a03338116600090815260086020526040902060010154161561218d57600080fd5b600980546001810161219f8382613aa9565b5060009182526020808320919091018054600160a060020a033316600160a060020a03199182168117909255818452600890925260409092208681556002810186905560018181018054909316909317909155600401839055819081111561220357fe5b600160a060020a0333166000908152600860205260409020600301805460ff19166001838181111561223157fe5b02179055507ff6066b2863e57bcf1b32ac4baa94493f4e622db517afa4e14fea29d9a71ac1ff33858484604051600160a060020a039094168452602084019290925260408084019190915260608301919091526080909101905180910390a150505050565b600160a060020a033381166000908152600660205260409020541615156122bc57600080fd5b60078054600181016122ce8382613aa9565b5060009182526020808320919091018054600160a060020a031990811633600160a060020a031690811790925581845260069283905260409093208054909316178255600382018d9055600482018c9055600582018b9055810180546affffffffffffffffffffff191660a860020a8b04176bff00000000000000000000001916605860020a60f860020a8b0402179055600781018790556008810186905560098101859055600a8101849055600b8101839055600201818051612396929160200190613acd565b507f78aebb31e26bab178d423b4a1ad852ed26a583cd60e0e9315acaff85bc508eb4338c8c8c8c8c8c8c8c8c8c604051600160a060020a03909b168b5260208b01999099526040808b019890985260608a0196909652600160a860020a03199094166080890152600160f860020a031990921660a088015260c087015260e0860152610100850152610120840152610140830191909152610160909101905180910390a15050505050505050505050565b60005433600160a060020a0390811691161461246257600080fd5b600054600160a060020a0316ff5b60066020819052600091825260409091208054600182015460038301546004840154600585015495850154600786015460088701546009880154600a890154600b8a0154600160a060020a039099169a9799600201989697959660a860020a860295605860020a900460f860020a0294939291908d565b600054600160a060020a031681565b600080600080600080600080600080600061250f613b4b565b612517613b4b565b600160a060020a0333811660009081526006602052604090205416151561253d57600080fd5b33600160a060020a03908116600090815260066020818152604092839020805460038201546004830154600584015495840154600785015460088601546009870154600a880154600b8901546002808b0180549a909f169e989d979c9b60a860020a88029b605860020a90980460f860020a029a9699959894979396929594600c90940193859361010060018216150260001901169290920491601f83018290048202909101905190810160405280929190818152602001828054600181600116156101000203166002900480156126565780601f1061262b57610100808354040283529160200191612656565b820191906000526020600020905b81548152906001019060200180831161263957829003601f168201915b50505050509150808054806020026020016040519081016040528092919081815260200182805480156126a957602002820191906000526020600020905b81548152600190910190602001808311612694575b505050505090509c509c509c509c509c509c509c509c509c509c509c509c509c50909192939495969798999a9b9c565b60008033600160a060020a031615156126f157600080fd5b600160a060020a038316151561270657600080fd5b600160a060020a0333811660009081526006602052604090205416151561272c57600080fd5b600160a060020a0383811660009081526008602052604090206001015416151561275557600080fd5b600091505b6001548210156114f65782600160a060020a031660018381548110151561277d57fe5b6000918252602090912060016004909202010154600160a060020a03161480156127d7575033600160a060020a03166001838154811015156127bb57fe5b6000918252602090912060049091020154600160a060020a0316145b156129be5760018054839081106127ea57fe5b6000918252602082206004909102018054600160a060020a031916815560018101805476ffffffffffffffffffffffffffffffffffffffffffffff19169055600281018290559061283e6003830182613b89565b50508160010190505b6001548110156129a957600180548390811061285f57fe5b9060005260206000209060040201600180840381548110151561287e57fe5b6000918252602090912082546004909202018054600160a060020a0319908116600160a060020a03938416178255600180850180548285018054909416951694909417808355845460ff60a060020a918290048116151590910274ff00000000000000000000000000000000000000001990921691909117808455855460a860020a90819004831615150275ff000000000000000000000000000000000000000000199091161780845594547601000000000000000000000000000000000000000000009081900490911615150276ff00000000000000000000000000000000000000000000199094169390931790556002808401548183015560038085018054939461299e949286019391929081161561010002600019011604613bd0565b505050600101612847565b60018054906129bc906000198301613c45565b505b60019091019061275a565b6129d1613b4b565b33600160a060020a031615156129e657600080fd5b6008600033600160a060020a0316600160a060020a03168152602001908152602001600020600501805480602002602001604051908101604052809291908181526020018280548015612a6257602002820191906000526020600020905b8154600160a060020a03168152600190910190602001808311612a44575b5050505050905090565b600080808080808080808033600160a060020a03161515612a8c57600080fd5b600160a060020a03338116600090815260066020526040902054161515612ab257600080fd5b600160a060020a038b8116600090815260086020526040902060010154161515612adb57600080fd5b5060005b600154811015612c995733600160a060020a0316600182815481101515612b0257fe5b6000918252602090912060049091020154600160a060020a0316148015612b5c57508a600160a060020a0316600182815481101515612b3d57fe5b6000918252602090912060016004909202010154600160a060020a0316145b15612c91576001805482908110612b6f57fe5b600091825260208083206001600490930201820154600160a060020a038f8116855260089092526040909320805460039091015491909316929160ff90911690811115612bb857fe5b33600160a060020a03166000908152600660208190526040909120600381015491810154600a9091015460018054605860020a90930460f860020a029288908110612bff57fe5b906000526020600020906004020160010160149054906101000a900460ff16600188815481101515612c2d57fe5b906000526020600020906004020160010160159054906101000a900460ff16600189815481101515612c5b57fe5b906000526020600020906004020160010160169054906101000a900460ff16995099509950995099509950995099509950612c99565b600101612adf565b509193959799909294969850565b600160a060020a0381161515612cbc57600080fd5b600160a060020a0333811660008181526008602081815260408084206005810180549789168652600690910183529084208690559390925290529060018101612d058382613aa9565b5060009182526020909120018054600160a060020a031916600160a060020a0392909216919091179055565b33600160a060020a03161515612d4657600080fd5b600160a060020a03331660008181526006602052604090208054600160a060020a031916909117815560010155565b600033600160a060020a03161515612d8c57600080fd5b600160a060020a0382161515612da157600080fd5b600160a060020a03338116600090815260066020526040902054161515612dc757600080fd5b600160a060020a03828116600090815260086020526040902060010154161515612df057600080fd5b5060005b600254811015612ef35781600160a060020a0316600282815481101515612e1757fe5b6000918252602090912060016004909202010154600160a060020a0316148015612e71575033600160a060020a0316600282815481101515612e5557fe5b6000918252602090912060049091020154600160a060020a0316145b15612eeb5783600282815481101515612e8657fe5b906000526020600020906004020160010160146101000a81548160ff02191690831515021790555082600282815481101515612ebe57fe5b906000526020600020906004020160010160156101000a81548160ff021916908315150217905550612ef3565b600101612df4565b50505050565b600080600080600080612f0a613b4b565b600088815260046020526040902060020154605860020a9004600160a060020a03161515612f3757600080fd5b60046000896000191660001916815260200190815260200160002060000154600460008a6000191660001916815260200190815260200160002060010154600460008b6000191660001916815260200190815260200160002060020160009054906101000a900460a860020a0260086000600460008e60001916600019168152602001908152602001600020600201600b9054906101000a9004600160a060020a0316600160a060020a0316600160a060020a031681526020019081526020016000206000015460066000600460008f6000191660001916815260200190815260200160002060030160009054906101000a9004600160a060020a0316600160a060020a0316600160a060020a0316815260200190815260200160002060030154600460008e6000191660001916815260200190815260200160002060030160149054906101000a900460ff16600281111561308f57fe5b600460008f60001916600019168152602001908152602001600020600401808054600181600116156101000203166002900480601f0160208091040260200160405190810160405280929190818152602001828054600181600116156101000203166002900480156131425780601f1061311757610100808354040283529160200191613142565b820191906000526020600020905b81548152906001019060200180831161312557829003601f168201915b505050505090509650965096509650965096509650919395979092949650565b60008033600160a060020a0316151561317a57600080fd5b600160a060020a033316600090815260086020526040902060028101546003909101549084149060ff1660018111156131af57fe5b91509150915091565b33600160a060020a031615156131cd57600080fd5b600160a060020a03841615156131e257600080fd5b600160a060020a0384811660009081526006602052604090205416151561320857600080fd5b600160a060020a0333811660009081526008602052604090206001015416151561323157600080fd5b600180548082016132428382613c45565b9160005260206000209060040201600060e06040519081016040528088600160a060020a0316815260200133600160a060020a031681526020018715158152602001861515815260200185151581526020016000815260200160408051908101604052600e81527f52657175657374205261697365640000000000000000000000000000000000006020820152905291905081518154600160a060020a031916600160a060020a03919091161781556020820151600182018054600160a060020a031916600160a060020a0392909216919091179055604082015160018201805491151560a060020a0274ff000000000000000000000000000000000000000019909216919091179055606082015160018201805491151560a860020a0275ff0000000000000000000000000000000000000000001990921691909117905560808201516001820180549115157601000000000000000000000000000000000000000000000276ff000000000000000000000000000000000000000000001990921691909117905560a0820151816002015560c0820151816003019080516133ee929160200190613acd565b5050505050505050565b60008281526004602052604081206002015433600160a060020a03908116605860020a909204161461342957600080fd5b600160a060020a038216151561343e57600080fd5b600160a060020a038083166000818152600660205260409020549091161461346557600080fd5b6000838152600460208190526040822082815560018101839055600281018054600160f860020a0319169055600381018054600160a860020a031916905591906134b190830182613b89565b5050600090505b600160a060020a0382166000908152600660205260409020600c01548110156114f657600160a060020a0382166000908152600660205260409020600c0180548491908390811061350557fe5b600091825260209091200154141561354a57600160a060020a0382166000908152600660205260409020600c0180548290811061353e57fe5b60009182526020822001555b6001016134b8565b6000600160a060020a038316151561356957600080fd5b600160a060020a0383811660009081526006602052604090205416151561358f57600080fd5b33600160a060020a031615156135a457600080fd5b600160a060020a033381166000908152600860205260409020600101541615156135cd57600080fd5b5060005b6003548110156114f65782600160a060020a03166003828154811015156135f457fe5b6000918252602090912060046007909202010154600160a060020a0316148015613651575033600160a060020a031660038281548110151561363257fe5b6000918252602090912060036007909202010154600160a060020a0316145b156136cb57600160038281548110151561366757fe5b60009182526020909120600660079092020101805460ff1916600183600281111561368e57fe5b0217905550816003828154811015156136a357fe5b90600052602060002090600702016005019080516136c5929160200190613acd565b506114f6565b6001016135d1565b33600160a060020a031615156136e857600080fd5b600082815260046020526040902060020154605860020a9004600160a060020a0316151561371557600080fd5b60008281526004602052604090206003015433600160a060020a0390811691161461373f57600080fd5b600082815260046020819052604090912060038101805474ff000000000000000000000000000000000000000019167402000000000000000000000000000000000000000017905501818051613799929160200190613acd565b507f34c66de432b94e8b9dcb23b78836659ed800c8fdbc7f2c40a9b507dfb3333dbd823383604051838152600160a060020a0383166020820152606060408201818152908201838181518152602001915080519060200190808383600083811015611980578082015183820152602001611968565b60005433600160a060020a0390811691161461382957600080fd5b600160a060020a038116151561383e57600080fd5b600054600160a060020a0380831691167f8be0079c531659141344cd1fd0a4f28419497f9722a3daafe3b4186f6b6457e060405160405180910390a360008054600160a060020a031916600160a060020a0392909216919091179055565b60005433600160a060020a039081169116146138b757600080fd5b80600160a060020a0316ff5b6138cb613b4b565b60006138d5613b4b565b600033600160a060020a031615156138ec57600080fd5b600160a060020a0333811660009081526008602052604090206001015416151561391557600080fd5b600354600093506040518059106139295750595b90808252806020026020018201604052509150600090505b600354811015610fec5733600160a060020a031660038281548110151561396457fe5b6000918252602090912060036007909202010154600160a060020a03161480156139bd57506000600380548390811061399957fe5b600091825260209091206006600790920201015460ff1660028111156139bb57fe5b145b156139ff5760038054829081106139d057fe5b9060005260206000209060070201600001548284815181106139ee57fe5b602090810290910101526001909201915b600101613941565b600160a060020a0333811660009081526008602052604081206001015490918291829182918291161515613a3a57600080fd5b600160a060020a033381166000908152600860205260409020600180820154825460048401546003909401549190941693929160ff90911690811115613a7c57fe5b33600160a060020a0316600090815260086020526040902060050154939992985090965094509092509050565b8154818355818115116114f6576000838152602090206114f6918101908301613c71565b828054600181600116156101000203166002900490600052602060002090601f016020900481019282601f10613b0e57805160ff1916838001178555613b3b565b82800160010185558215613b3b579182015b82811115613b3b578251825591602001919060010190613b20565b50613b47929150613c71565b5090565b60206040519081016040526000815290565b8154818355818115116114f6576007028160070283600052602060002091820191016114f69190613c8b565b50805460018160011615610100020316600290046000825580601f10613baf5750613bcd565b601f016020900490600052602060002090810190613bcd9190613c71565b50565b828054600181600116156101000203166002900490600052602060002090601f016020900481019282601f10613c095780548555613b3b565b82800160010185558215613b3b57600052602060002091601f016020900482015b82811115613b3b578254825591600101919060010190613c2a565b8154818355818115116114f6576004028160040283600052602060002091820191016114f69190613cf4565b61146391905b80821115613b475760008155600101613c77565b61146391905b80821115613b47576000808255600182018054600160a060020a031990811690915560028301805482169055600383018054821690556004830180549091169055613cdf6005830182613b89565b5060068101805460ff19169055600701613c91565b61146391905b80821115613b47578054600160a060020a031916815560018101805476ffffffffffffffffffffffffffffffffffffffffffffff19169055600060028201819055613d486003830182613b89565b50600401613cfa5600a165627a7a72305820cc2dc0583fbfba31c7b20db2b295ec24d56e3c7cc3ca64d72734ddd83ae1e65f0029",
  "source": "pragma solidity ^0.4.18;\r\nimport \"./lib/StringUtils.sol\";\r\nimport \"./ownership/Ownable.sol\";\r\nimport \"./lifecycle/Destructible.sol\";\r\n\r\n\r\ncontract App is Ownable,Destructible {\r\n    \r\n    /**\r\n     * This is status enum used to indentify document status\r\n     */\r\n    enum Status {DEFAULT,APPROVED,REJECTED}\r\n\r\n    enum EType {UNIVEERSITY,ORGANISATION}\r\n\r\n    struct Person{\r\n        address  addrs;\r\n        bytes32 password;\r\n        string photo;\r\n        bytes32  fName; // name of document\r\n        bytes32  occupation;\r\n        uint  income;\r\n        bytes11  dob;\r\n        bytes1   gender;\r\n        bytes32  rAddress1;\r\n        bytes32  rAddress2;\r\n        uint  mobile;\r\n        bytes32  email;\r\n        bytes32  country;\r\n        bytes32[]  documentList; // list of document keys so we can look them up\r\n    }\r\n\r\n    struct Entity{\r\n        bytes32 name; // name of document\r\n        address addrs;\r\n        bytes32 password;\r\n        EType etype;\r\n        bytes32 regNo;\r\n        address[]  personList;\r\n        mapping (address => uint) personRoleNo;\r\n    }\r\n\r\n    struct ProfileRequest{\r\n        address person;\r\n        address requester;\r\n        bool canView;\r\n        bool canModify;\r\n        bool canModifyDocument;\r\n        uint status;\r\n        string comments;\r\n    }\r\n    \r\n    struct TrdPrtyVerfnRequest{\r\n         uint id;\r\n         address requester;//\t\t\t\t- LTI\r\n         address requestBy;//requester org  - LTI\r\n         address requestTo;//Third party org - TPV\r\n         address requestFor;//Person\t\t- Mukund\r\n         string comments;\r\n     \t Status status;   \r\n    }\r\n\t\r\n\tstruct Document{\r\n\t    bytes32 name;\r\n        bytes32 document; // this is only document hash value\r\n        bytes11 ext; // extension of document\r\n        address issuer;\r\n        address recipient;\r\n        Status status; // = Status.DEFAULT;// this is document status, used enum\r\n        string comments;\r\n    }\r\n\t\r\n\t\r\n    /**\r\n     * mapping of records\r\n     */\r\n    ProfileRequest[]  profileRequest;\r\n    ProfileRequest[]  docRequest;\r\n    TrdPrtyVerfnRequest[] trdPrtyVerfnRequests;\r\n    \r\n    mapping (bytes32 => Document) public documents;\r\n    bytes32[]  documentList;\r\n    \r\n    mapping (address => Person) public persons;\r\n    address[]  personList;\r\n    \r\n    mapping (address => Entity) entities;\r\n    address[]  entityList;\r\n\r\n    /**\r\n     * events\r\n     */\r\n    event DocumentIssued(bytes32 document,address recipient,bytes32 name, string comments);\r\n    event DocumentApproved(bytes32 document,address approver,string comments);\r\n    event DocumentRejected(bytes32 document,address approver,string comments);\r\n\r\n    event PersonAdded(address addrs,bytes32 fName,bytes32 occupation, uint income,bytes11 dob, bytes1 gender,bytes32 rAddress1,bytes32 rAddress2,uint mobile,bytes32 email,bytes32 country);\r\n    event PersonUpdated(address addrs,bytes32 fName,bytes32 occupation, uint income,bytes11 dob, bytes1 gender,bytes32 rAddress1,bytes32 rAddress2,uint mobile,bytes32 email,bytes32 country);\r\n\r\n    event EntityAdded(address addrs,bytes32 name,bytes32 regNo,uint etype);\r\n    \r\n\t\r\n\t/**\r\n\t *This method is used to raise third party verification request \r\n\t * sender would be the Organisation who is raising the request \r\n\t */\r\n\tfunction personVerificationRequest(address _person,address _requestTo) payable public{\r\n\t    \trequire(_person !=address(0));\r\n\t        require(persons[_person].addrs!=address(0));\r\n\t    \trequire(msg.sender !=address(0));\r\n\t        require(entities[msg.sender].addrs!=address(0));\r\n\t        require(_requestTo !=address(0));\r\n\t        require(entities[_requestTo].addrs!=address(0));\r\n\t        trdPrtyVerfnRequests.push(TrdPrtyVerfnRequest(trdPrtyVerfnRequests.length,msg.sender,msg.sender,_requestTo,_person,\"\",Status.DEFAULT));\r\n    }\r\n\t\r\n    /**\r\n\t *This method will give list of person which require third party verification\r\n\t * this is for third party in request tab\r\n\t */\r\n\tfunction personVerificationRequestForMe() public view returns(uint[]){\r\n\t    \trequire(msg.sender !=address(0));\r\n\t        require(entities[msg.sender].addrs!=address(0));\r\n\t\t\tuint count=0;\r\n\t\t\tuint[] memory ids = new uint[](trdPrtyVerfnRequests.length);\r\n\t\t\tfor(uint256 i = 0; i < trdPrtyVerfnRequests.length; i++){\r\n\t            if(trdPrtyVerfnRequests[i].requestTo == msg.sender && trdPrtyVerfnRequests[i].status == Status.DEFAULT){\r\n\t                 ids[count]=trdPrtyVerfnRequests[i].id;\r\n\t                 count++;\r\n\t            }\r\n\t        }\r\n\t        return ids;\r\n\t}\r\n\t\r\n\t/**\r\n\t *This method is used to raise third party verification request\r\n\t * this is for org which has raised request and can see in verification tab  \r\n\t */\r\n\tfunction personVerificationRequestByMe() public view returns(uint[]){\r\n\t    \trequire(msg.sender !=address(0));\r\n\t        require(entities[msg.sender].addrs!=address(0));\r\n\t        uint count=0;\r\n\t        uint[] memory ids = new uint[](trdPrtyVerfnRequests.length);\r\n\t        \r\n\t        for(uint256 i = 0; i < trdPrtyVerfnRequests.length; i++){\r\n\t            if(trdPrtyVerfnRequests[i].requester == msg.sender){\r\n\t                 ids[count]=trdPrtyVerfnRequests[i].id;\r\n\t                 count++;\r\n\t            }\r\n\t        }\r\n\t        return ids;\r\n\t}\r\n\t\r\n\tfunction personVerificationDetails(uint _id) public view returns(address,bytes32,bytes1,bytes32,address,bytes32,uint,string,address,bytes32,uint){\r\n\t    \trequire(msg.sender !=address(0));\r\n\t        require(entities[msg.sender].addrs!=address(0));\r\n\t        \r\n\t        for(uint256 i = 0; i < trdPrtyVerfnRequests.length; i++){\r\n\t            if(trdPrtyVerfnRequests[i].id == _id){\r\n\t\t\t\t\treturn(trdPrtyVerfnRequests[i].requestFor,\r\n\t\t\t\t\t    persons[trdPrtyVerfnRequests[i].requestFor].fName,\r\n\t\t\t\t\t    persons[trdPrtyVerfnRequests[i].requestFor].gender,\r\n\t\t\t\t\t    persons[trdPrtyVerfnRequests[i].requestFor].email,\r\n\t\t\t\t\t    trdPrtyVerfnRequests[i].requestBy,\r\n\t\t\t\t\t    entities[trdPrtyVerfnRequests[i].requestBy].name,\r\n\t\t\t\t\t    uint(trdPrtyVerfnRequests[i].status),\r\n\t\t\t\t\t    trdPrtyVerfnRequests[i].comments,\r\n\t\t\t\t\t    trdPrtyVerfnRequests[i].requestTo,\r\n\t\t\t\t\t    entities[trdPrtyVerfnRequests[i].requestTo].name,\r\n\t\t\t\t\t    trdPrtyVerfnRequests[i].id\r\n\t\t\t\t\t);\t            \t\r\n\t            }\r\n\t        }\r\n\t}\r\n\t\r\n\tfunction approvePersonVerificationDetails(address _person,string _comments) payable public {\r\n\t    \trequire(_person !=address(0));\r\n\t        require(persons[_person].addrs!=address(0));\r\n\t        \r\n\t        require(msg.sender !=address(0));\r\n\t        require(entities[msg.sender].addrs!=address(0));\r\n\t        \r\n\t        for(uint256 i = 0; i < trdPrtyVerfnRequests.length; i++){\r\n\t            if(trdPrtyVerfnRequests[i].requestFor == _person \r\n\t                \t&& trdPrtyVerfnRequests[i].requestTo==msg.sender){\r\n\t\t\t\t\t    trdPrtyVerfnRequests[i].status = Status.APPROVED;\r\n\t\t\t\t\t    trdPrtyVerfnRequests[i].comments = _comments;\r\n\t\t\t\t\t    return;\r\n\t            }\r\n\t        }\r\n\t}\r\n\t\r\n\t/**\r\n\t *This method is used to raise third party verification request\r\n\t * this is for org which has raised request and can see in verification tab  \r\n\t */\r\n\tfunction sharePersonVerificationResult(uint _pid,address _target) payable public {\r\n\t        require(msg.sender !=address(0));\r\n\t        require(entities[msg.sender].addrs!=address(0));\r\n\t        \r\n\t        require(_target !=address(0));\r\n\t        require(entities[_target].addrs!=address(0));\r\n\t\t\t\r\n\t        for(uint256 i = 0; i < trdPrtyVerfnRequests.length; i++){\r\n\t            if(trdPrtyVerfnRequests[i].id == _pid){\r\n\t                    trdPrtyVerfnRequests.push(TrdPrtyVerfnRequest(trdPrtyVerfnRequests.length,\r\n\t\t\t\t\t\t\t\t\t\t\t      _target,\r\n\t\t\t\t\t\t\t\t\t\t\t      trdPrtyVerfnRequests[i].requestBy ,\r\n\t\t\t\t\t\t\t\t\t\t\t      trdPrtyVerfnRequests[i].requestTo,\r\n\t\t\t\t\t\t\t\t\t\t\t      trdPrtyVerfnRequests[i].requestFor,\r\n\t\t\t\t\t\t\t\t\t\t\t      trdPrtyVerfnRequests[i].comments,\r\n\t\t\t\t\t\t\t\t\t\t\t      trdPrtyVerfnRequests[i].status\r\n\t\t\t\t\t\t\t\t\t\t\t\t));\r\n\t\t\t\t\treturn;\t\t\t\t\t\t\t\t\r\n\t\t\t\t}\r\n\t        }\r\n\t}\r\n\t\r\n\t\r\n\t/**\r\n\t * Profile services\r\n\t */\r\n    function addProfileRequest(address _person,bool _canView,bool _canModify,bool _canModifyDocument) public{\r\n        require(msg.sender !=address(0));\r\n        require(_person !=address(0));\r\n        require(persons[_person].addrs!=address(0));\r\n        require(entities[msg.sender].addrs!=address(0));\r\n        profileRequest.push(ProfileRequest(_person, msg.sender, _canView,_canModify,_canModifyDocument,0,\"Request Raised\"));\r\n    }\r\n    \r\n    function personProfileRequests() public view returns(address[]){\r\n        require(msg.sender !=address(0));\r\n        require(persons[msg.sender].addrs!=address(0));\r\n        uint count=0;\r\n        address[] memory userRequest = new address[](profileRequest.length);\r\n        \r\n        for(uint256 i = 0; i < profileRequest.length; i++){\r\n            if(profileRequest[i].person == msg.sender)\r\n                    userRequest[count]=profileRequest[i].requester;\r\n                    count++;\r\n        }\r\n        \r\n        return userRequest;\r\n    }\r\n      \r\n    function profileRequestDetails(address _sender) public view returns(address,bytes32,uint,bytes32,bytes1,bytes32,bool,bool,bool){\r\n        require(msg.sender !=address(0));\r\n        require(persons[msg.sender].addrs!=address(0));\r\n        require(entities[_sender].addrs!=address(0));\r\n        \r\n        for(uint256 i = 0; i < profileRequest.length; i++){\r\n            if(profileRequest[i].person == msg.sender &&\r\n                 profileRequest[i].requester == _sender)\r\n                     return (profileRequest[i].requester,entities[_sender].name,uint(entities[_sender].etype),persons[msg.sender].fName,persons[msg.sender].gender,persons[msg.sender].email, profileRequest[i].canView,profileRequest[i].canModify,profileRequest[i].canModifyDocument);\r\n        }\r\n    }\r\n    \r\n    function updateProfileRequest(address _sender,bool _canView,bool _canModify,bool _canModifyDocument ) payable public {\r\n        require(msg.sender !=address(0));\t\r\n        require(_sender !=address(0));\r\n        require(persons[msg.sender].addrs!=address(0));\r\n        require(entities[_sender].addrs!=address(0));\r\n        \r\n        for(uint i = 0; i < profileRequest.length; i++){\r\n            if(profileRequest[i].requester == _sender && profileRequest[i].person == msg.sender) {\r\n                profileRequest[i].canView = _canView;\r\n                profileRequest[i].canModify = _canModify;\r\n                profileRequest[i].canModifyDocument = _canModifyDocument;\r\n                return;\r\n            }\r\n        }\r\n    }\r\n    \r\n    function deleteProfileRequest(address _sender) payable public {\r\n        require(msg.sender !=address(0));\t\r\n        require(_sender !=address(0));\r\n        require(persons[msg.sender].addrs!=address(0));\r\n        require(entities[_sender].addrs!=address(0));\r\n        \r\n        for(uint i = 0; i < profileRequest.length; i++){\r\n            if(profileRequest[i].requester == _sender && profileRequest[i].person == msg.sender) {\r\n                delete profileRequest[i];\r\n                for(uint j = i+1;j < profileRequest.length; ++ j) {\r\n                      profileRequest[i-1] = profileRequest[i];\r\n              \t}\r\n                profileRequest.length --;\r\n            }\r\n        }\r\n    }\r\n\r\n    function documentRequest(bool _canView,bool _canModify, address _sender) payable public{\r\n        require(msg.sender !=address(0));\r\n        require(_sender !=address(0));\r\n        require(persons[msg.sender].addrs!=address(0));\r\n        require(entities[_sender].addrs!=address(0));\r\n        for(uint i = 0; i < docRequest.length; ++ i){\r\n            if(docRequest[i].requester== _sender && docRequest[i].person == msg.sender) {\r\n                docRequest[i].canView = _canView;\r\n                docRequest[i].canModify = _canModify;\r\n                return;\r\n            }\r\n        }\r\n    }\r\n\r\n    /**\r\n     * this can be done by only university/Organization\r\n     */\r\n    function removeDocument(bytes32 _document, address _person) payable public {\r\n        require(documents[_document].issuer == msg.sender);\r\n        require(_person !=address(0));\r\n        require(persons[_person].addrs == _person);\r\n        \r\n        delete(documents[_document]);\r\n        \r\n        for(uint i = 0; i < persons[_person].documentList.length; i++){\r\n            if(persons[_person].documentList[i] == _document) {\r\n                delete persons[_person].documentList[i];\r\n            }\r\n        }\r\n        \r\n    }\r\n\r\n    function issueDocument(bytes32 _document, bytes11 _ext,address _recipient, bytes32 _name,string _comment) payable public{\r\n        require(documents[_document].issuer == address(0));\r\n        require(msg.sender !=address(0));\r\n        require(persons[_recipient].addrs !=address(0));\r\n  \t      \r\n        persons[_recipient].documentList.push(_document);\r\n        \r\n        documentList.push(_document);\r\n        documents[_document].name = _name;\r\n        documents[_document].document = _document;\r\n        documents[_document].ext = _ext;\r\n        documents[_document].issuer = msg.sender;\r\n        documents[_document].recipient = _recipient;\r\n        documents[_document].recipient = _recipient;\r\n        documents[_document].status = Status.DEFAULT;\r\n        documents[_document].comments=_comment;\r\n        // trigger event\r\n        DocumentIssued(_document,_recipient,_name,_comment);\r\n    }\r\n\r\n    function approveDocument(bytes32 _document,string _comment) payable public {\r\n        require(msg.sender != address(0));\r\n        require(documents[_document].issuer != address(0));\r\n        require(documents[_document].recipient == msg.sender);\r\n        \r\n        documents[_document].status = Status.APPROVED;\r\n        documents[_document].comments=_comment;\r\n        \r\n        // trigger event\r\n        DocumentApproved(_document,msg.sender,_comment);\r\n    }\r\n\r\n    function rejectDocument(bytes32 _document,string _comment) payable public{\r\n        require(msg.sender != address(0));\r\n        require(documents[_document].issuer != address(0));\r\n        require(documents[_document].recipient == msg.sender);\r\n        \r\n        documents[_document].status = Status.REJECTED;\r\n        documents[_document].comments=_comment;\r\n        // trigger event\r\n        DocumentRejected(_document,msg.sender,_comment);\r\n    }\r\n\r\n    function getDocument(bytes32 _document) public view returns (bytes32,bytes32,bytes11,bytes32,bytes32,uint,string){\r\n        require(documents[_document].issuer != address(0));\r\n        return (documents[_document].name,\r\n        \t\tdocuments[_document].document,\r\n                documents[_document].ext,\r\n                entities[documents[_document].issuer].name,\r\n                persons[documents[_document].recipient].fName,\r\n                uint(documents[_document].status),\r\n                documents[_document].comments);\r\n    }\r\n\r\n    /**\r\n     * Person services\r\n     */\r\n    function addPerson(bytes32 _fName,bytes32 _occupation,\r\n                     uint _income,bytes11 _dob,\r\n                     bytes1 _gender,bytes32 _rAddress1,\r\n                     bytes32 _rAddress2,uint _mobile,\r\n                     bytes32 _email,bytes32 _country,string _photo) payable public{\r\n        require(persons[msg.sender].addrs == address(0));\r\n        personList.push(msg.sender);\r\n        persons[msg.sender].addrs = msg.sender;\r\n        persons[msg.sender].fName = _fName;\r\n        persons[msg.sender].occupation =_occupation;\r\n        persons[msg.sender].income =_income;\r\n        persons[msg.sender].dob =_dob;\r\n        persons[msg.sender].gender =_gender;\r\n        persons[msg.sender].rAddress1 =_rAddress1;\r\n        persons[msg.sender].rAddress2 =_rAddress2;\r\n        persons[msg.sender].mobile =_mobile;\r\n        persons[msg.sender].email =_email;\r\n        persons[msg.sender].photo = _photo;\r\n        persons[msg.sender].country =_country;\r\n        // trigger event\r\n        PersonAdded(msg.sender,_fName,_occupation,_income,_dob,_gender,_rAddress1,_rAddress2,_mobile,_email,_country);\r\n    }\r\n    \r\n    function updatePerson(bytes32 _fName,bytes32 _occupation,\r\n                     uint _income,bytes11 _dob,\r\n                     bytes1 _gender,bytes32 _rAddress1,\r\n                     bytes32 _rAddress2,uint _mobile,\r\n                     bytes32 _email,bytes32 _country,string _photo) payable public{\r\n        require(persons[msg.sender].addrs != address(0));\r\n        personList.push(msg.sender);\r\n        persons[msg.sender].addrs = msg.sender;\r\n        persons[msg.sender].fName = _fName;\r\n        persons[msg.sender].occupation =_occupation;\r\n        persons[msg.sender].income =_income;\r\n        persons[msg.sender].dob =_dob;\r\n        persons[msg.sender].gender =_gender;\r\n        persons[msg.sender].rAddress1 =_rAddress1;\r\n        persons[msg.sender].rAddress2 =_rAddress2;\r\n        persons[msg.sender].mobile =_mobile;\r\n        persons[msg.sender].email =_email;\r\n        persons[msg.sender].country =_country;\r\n        persons[msg.sender].photo = _photo;\r\n        // trigger event\r\n        PersonUpdated(msg.sender,_fName,_occupation,_income,_dob,_gender,_rAddress1,_rAddress2,_mobile,_email,_country);\r\n    }\r\n    \r\n    function addPersonPhoto(string _photo,address _person) payable public{\r\n        require(_person != address(0));\r\n        require(persons[_person].addrs != address(0));\r\n        require(entities[msg.sender].addrs != address(0));\r\n        \r\n        persons[msg.sender].photo = _photo;\r\n    }\r\n\r\n    function isPersonExist() public view returns (bool){\r\n        if(persons[msg.sender].addrs == address(0))\r\n              return false;\r\n        else return true;\r\n    }\r\n\r\n    function setPassword(bytes32 _password) payable public{\r\n        require(msg.sender != address(0));\r\n        persons[msg.sender].addrs=msg.sender;\r\n        persons[msg.sender].password=_password;\r\n    }\r\n\r\n    function authenticatePerson(bytes32 _password) public view returns (bool){\r\n        require(msg.sender != address(0));\r\n        return (persons[msg.sender].password == _password);\r\n    }\r\n\r\n    function getPerson() public view returns (address,bytes32,bytes32,uint,bytes11,bytes1,bytes32,bytes32,uint,bytes32,bytes32,string,bytes32[]){\r\n        require(persons[msg.sender].addrs != address(0));\r\n        return (persons[msg.sender].addrs,\r\n            persons[msg.sender].fName,\r\n            persons[msg.sender].occupation,\r\n            persons[msg.sender].income,\r\n            persons[msg.sender].dob,\r\n            persons[msg.sender].gender,\r\n            persons[msg.sender].rAddress1,\r\n            persons[msg.sender].rAddress2,\r\n            persons[msg.sender].mobile,\r\n            persons[msg.sender].email,\r\n            persons[msg.sender].country,\r\n            persons[msg.sender].photo,\r\n            persons[msg.sender].documentList);\r\n    }\r\n\r\n    /**\r\n     * Entity services\r\n     */\r\n    function authenticateEntity(bytes32 _password) public view returns (bool,uint){\r\n        require(msg.sender != address(0));\r\n        return ((entities[msg.sender].password == _password), uint(entities[msg.sender].etype));\r\n    }\r\n\r\n    function addEntity(bytes32 _name,bytes32 _password,bytes32 _regNo,uint _etype) payable public{\r\n        require(entities[msg.sender].addrs == address(0));\r\n        entityList.push(msg.sender);\r\n        entities[msg.sender].name = _name;\r\n        entities[msg.sender].password=_password;\r\n        entities[msg.sender].addrs = msg.sender;\r\n        entities[msg.sender].regNo =_regNo;\r\n        entities[msg.sender].etype =EType(_etype);\r\n        // trigger event\r\n        EntityAdded(msg.sender,_name,_regNo,_etype);\r\n    }\r\n\r\n    function isEntityExist() public view returns (bool){\r\n        if(entities[msg.sender].addrs == address(0))\r\n            return false;\r\n        else \r\n        \treturn true;\r\n    }\r\n\r\n    function getEntity() public view returns (address,bytes32,bytes32,uint,uint){\r\n        require(entities[msg.sender].addrs != address(0));\r\n        return (entities[msg.sender].addrs,\r\n                  entities[msg.sender].name,\r\n                  entities[msg.sender].regNo,\r\n                  uint(entities[msg.sender].etype),\r\n                  entities[msg.sender].personList.length);\r\n    }\r\n\r\n    function enrollPerson(address _person) payable public {\r\n        require(_person != address(0));\r\n        entities[msg.sender].personRoleNo[_person] = entities[msg.sender].personList.length;\r\n        entities[msg.sender].personList.push(_person);\r\n    }\r\n\r\n    function enrollment() public view returns (address[]){\r\n        require(msg.sender != address(0));\r\n        return entities[msg.sender].personList;\r\n    }\r\n}\r\n\r\n\r\n",
  "sourcePath": "G:\\bgc-app1\\contracts\\App.sol",
  "compiler": {
    "name": "solc",
    "version": "0.4.18+commit.9cf6e910.Emscripten.clang"
  },
  "schemaVersion": "1.0.1",
  "updatedAt": "2018-08-23T16:05:54.614Z"
}