{
  "contractName": "App",
  "abi": [
    {
      "constant": true,
      "inputs": [],
      "name": "personVerificationRequestByMe",
      "outputs": [
        {
          "name": "",
          "type": "uint256[]"
        }
      ],
      "payable": false,
      "stateMutability": "view",
      "type": "function"
    },
    {
      "constant": false,
      "inputs": [
        {
          "name": "_sender",
          "type": "address"
        },
        {
          "name": "_canView",
          "type": "bool"
        },
        {
          "name": "_canModify",
          "type": "bool"
        },
        {
          "name": "_canModifyDocument",
          "type": "bool"
        }
      ],
      "name": "updateProfileRequest",
      "outputs": [],
      "payable": true,
      "stateMutability": "payable",
      "type": "function"
    },
    {
      "constant": false,
      "inputs": [
        {
          "name": "_fName",
          "type": "bytes32"
        },
        {
          "name": "_occupation",
          "type": "bytes32"
        },
        {
          "name": "_income",
          "type": "uint256"
        },
        {
          "name": "_dob",
          "type": "bytes11"
        },
        {
          "name": "_gender",
          "type": "bytes1"
        },
        {
          "name": "_rAddress1",
          "type": "bytes32"
        },
        {
          "name": "_rAddress2",
          "type": "bytes32"
        },
        {
          "name": "_mobile",
          "type": "uint256"
        },
        {
          "name": "_email",
          "type": "bytes32"
        },
        {
          "name": "_country",
          "type": "bytes32"
        }
      ],
      "name": "updatePerson",
      "outputs": [],
      "payable": true,
      "stateMutability": "payable",
      "type": "function"
    },
    {
      "constant": true,
      "inputs": [
        {
          "name": "",
          "type": "bytes32"
        }
      ],
      "name": "documents",
      "outputs": [
        {
          "name": "issuer",
          "type": "address"
        },
        {
          "name": "recipient",
          "type": "address"
        },
        {
          "name": "document",
          "type": "bytes32"
        },
        {
          "name": "name",
          "type": "bytes32"
        },
        {
          "name": "approver",
          "type": "address"
        },
        {
          "name": "status",
          "type": "uint8"
        },
        {
          "name": "comments",
          "type": "string"
        }
      ],
      "payable": false,
      "stateMutability": "view",
      "type": "function"
    },
    {
      "constant": false,
      "inputs": [
        {
          "name": "_person",
          "type": "address"
        },
        {
          "name": "_requestTo",
          "type": "address"
        }
      ],
      "name": "personVerificationRequest",
      "outputs": [],
      "payable": true,
      "stateMutability": "payable",
      "type": "function"
    },
    {
      "constant": true,
      "inputs": [],
      "name": "isEntityExist",
      "outputs": [
        {
          "name": "",
          "type": "bool"
        }
      ],
      "payable": false,
      "stateMutability": "view",
      "type": "function"
    },
    {
      "constant": true,
      "inputs": [],
      "name": "personProfileRequests",
      "outputs": [
        {
          "name": "",
          "type": "address[]"
        }
      ],
      "payable": false,
      "stateMutability": "view",
      "type": "function"
    },
    {
      "constant": false,
      "inputs": [
        {
          "name": "_document",
          "type": "bytes32"
        },
        {
          "name": "_comment",
          "type": "string"
        }
      ],
      "name": "approveDocument",
      "outputs": [
        {
          "name": "",
          "type": "bool"
        }
      ],
      "payable": true,
      "stateMutability": "payable",
      "type": "function"
    },
    {
      "constant": true,
      "inputs": [
        {
          "name": "_password",
          "type": "bytes32"
        }
      ],
      "name": "authenticatePerson",
      "outputs": [
        {
          "name": "",
          "type": "bool"
        }
      ],
      "payable": false,
      "stateMutability": "view",
      "type": "function"
    },
    {
      "constant": false,
      "inputs": [
        {
          "name": "_pid",
          "type": "uint256"
        },
        {
          "name": "_target",
          "type": "address"
        }
      ],
      "name": "sharePersonVerificationResult",
      "outputs": [],
      "payable": true,
      "stateMutability": "payable",
      "type": "function"
    },
    {
      "constant": true,
      "inputs": [
        {
          "name": "_id",
          "type": "uint256"
        }
      ],
      "name": "personVerificationDetails",
      "outputs": [
        {
          "name": "",
          "type": "address"
        },
        {
          "name": "",
          "type": "bytes32"
        },
        {
          "name": "",
          "type": "bytes1"
        },
        {
          "name": "",
          "type": "bytes32"
        },
        {
          "name": "",
          "type": "address"
        },
        {
          "name": "",
          "type": "bytes32"
        },
        {
          "name": "",
          "type": "uint256"
        },
        {
          "name": "",
          "type": "string"
        },
        {
          "name": "",
          "type": "address"
        },
        {
          "name": "",
          "type": "bytes32"
        }
      ],
      "payable": false,
      "stateMutability": "view",
      "type": "function"
    },
    {
      "constant": true,
      "inputs": [],
      "name": "isPersonExist",
      "outputs": [
        {
          "name": "",
          "type": "bool"
        }
      ],
      "payable": false,
      "stateMutability": "view",
      "type": "function"
    },
    {
      "constant": false,
      "inputs": [
        {
          "name": "_name",
          "type": "bytes32"
        },
        {
          "name": "_password",
          "type": "bytes32"
        },
        {
          "name": "_regNo",
          "type": "bytes32"
        },
        {
          "name": "_etype",
          "type": "uint256"
        }
      ],
      "name": "addEntity",
      "outputs": [],
      "payable": true,
      "stateMutability": "payable",
      "type": "function"
    },
    {
      "constant": false,
      "inputs": [
        {
          "name": "_document",
          "type": "bytes32"
        },
        {
          "name": "_recipient",
          "type": "address"
        },
        {
          "name": "_name",
          "type": "bytes32"
        },
        {
          "name": "_comment",
          "type": "string"
        }
      ],
      "name": "issueDocument",
      "outputs": [
        {
          "name": "",
          "type": "bool"
        }
      ],
      "payable": true,
      "stateMutability": "payable",
      "type": "function"
    },
    {
      "constant": true,
      "inputs": [],
      "name": "personCount",
      "outputs": [
        {
          "name": "",
          "type": "uint256"
        }
      ],
      "payable": false,
      "stateMutability": "view",
      "type": "function"
    },
    {
      "constant": false,
      "inputs": [],
      "name": "destroy",
      "outputs": [],
      "payable": false,
      "stateMutability": "nonpayable",
      "type": "function"
    },
    {
      "constant": true,
      "inputs": [],
      "name": "entityCount",
      "outputs": [
        {
          "name": "",
          "type": "uint256"
        }
      ],
      "payable": false,
      "stateMutability": "view",
      "type": "function"
    },
    {
      "constant": true,
      "inputs": [
        {
          "name": "",
          "type": "address"
        }
      ],
      "name": "persons",
      "outputs": [
        {
          "name": "addrs",
          "type": "address"
        },
        {
          "name": "password",
          "type": "bytes32"
        },
        {
          "name": "fName",
          "type": "bytes32"
        },
        {
          "name": "occupation",
          "type": "bytes32"
        },
        {
          "name": "income",
          "type": "uint256"
        },
        {
          "name": "dob",
          "type": "bytes11"
        },
        {
          "name": "gender",
          "type": "bytes1"
        },
        {
          "name": "rAddress1",
          "type": "bytes32"
        },
        {
          "name": "rAddress2",
          "type": "bytes32"
        },
        {
          "name": "mobile",
          "type": "uint256"
        },
        {
          "name": "email",
          "type": "bytes32"
        },
        {
          "name": "country",
          "type": "bytes32"
        }
      ],
      "payable": false,
      "stateMutability": "view",
      "type": "function"
    },
    {
      "constant": true,
      "inputs": [],
      "name": "owner",
      "outputs": [
        {
          "name": "",
          "type": "address"
        }
      ],
      "payable": false,
      "stateMutability": "view",
      "type": "function"
    },
    {
      "constant": true,
      "inputs": [],
      "name": "getPerson",
      "outputs": [
        {
          "name": "",
          "type": "address"
        },
        {
          "name": "",
          "type": "bytes32"
        },
        {
          "name": "",
          "type": "bytes32"
        },
        {
          "name": "",
          "type": "uint256"
        },
        {
          "name": "",
          "type": "bytes11"
        },
        {
          "name": "",
          "type": "bytes1"
        },
        {
          "name": "",
          "type": "bytes32"
        },
        {
          "name": "",
          "type": "bytes32"
        },
        {
          "name": "",
          "type": "uint256"
        },
        {
          "name": "",
          "type": "bytes32"
        },
        {
          "name": "",
          "type": "bytes32"
        },
        {
          "name": "",
          "type": "bytes32[]"
        }
      ],
      "payable": false,
      "stateMutability": "view",
      "type": "function"
    },
    {
      "constant": false,
      "inputs": [
        {
          "name": "_sender",
          "type": "address"
        }
      ],
      "name": "deleteProfileRequest",
      "outputs": [],
      "payable": true,
      "stateMutability": "payable",
      "type": "function"
    },
    {
      "constant": false,
      "inputs": [
        {
          "name": "_fName",
          "type": "bytes32"
        },
        {
          "name": "_occupation",
          "type": "bytes32"
        },
        {
          "name": "_income",
          "type": "uint256"
        },
        {
          "name": "_dob",
          "type": "bytes11"
        },
        {
          "name": "_gender",
          "type": "bytes1"
        },
        {
          "name": "_rAddress1",
          "type": "bytes32"
        },
        {
          "name": "_rAddress2",
          "type": "bytes32"
        },
        {
          "name": "_mobile",
          "type": "uint256"
        },
        {
          "name": "_email",
          "type": "bytes32"
        },
        {
          "name": "_country",
          "type": "bytes32"
        }
      ],
      "name": "addPerson",
      "outputs": [],
      "payable": true,
      "stateMutability": "payable",
      "type": "function"
    },
    {
      "constant": true,
      "inputs": [],
      "name": "enrollment",
      "outputs": [
        {
          "name": "",
          "type": "address[]"
        }
      ],
      "payable": false,
      "stateMutability": "view",
      "type": "function"
    },
    {
      "constant": true,
      "inputs": [],
      "name": "getPersonDocuments",
      "outputs": [
        {
          "name": "",
          "type": "bytes32[]"
        }
      ],
      "payable": false,
      "stateMutability": "view",
      "type": "function"
    },
    {
      "constant": true,
      "inputs": [
        {
          "name": "_sender",
          "type": "address"
        }
      ],
      "name": "profileRequestDetails",
      "outputs": [
        {
          "name": "",
          "type": "address"
        },
        {
          "name": "",
          "type": "bytes32"
        },
        {
          "name": "",
          "type": "uint256"
        },
        {
          "name": "",
          "type": "bytes32"
        },
        {
          "name": "",
          "type": "bytes1"
        },
        {
          "name": "",
          "type": "bytes32"
        },
        {
          "name": "",
          "type": "bool"
        },
        {
          "name": "",
          "type": "bool"
        },
        {
          "name": "",
          "type": "bool"
        }
      ],
      "payable": false,
      "stateMutability": "view",
      "type": "function"
    },
    {
      "constant": false,
      "inputs": [
        {
          "name": "_person",
          "type": "address"
        }
      ],
      "name": "enrollPerson",
      "outputs": [],
      "payable": true,
      "stateMutability": "payable",
      "type": "function"
    },
    {
      "constant": false,
      "inputs": [
        {
          "name": "_password",
          "type": "bytes32"
        }
      ],
      "name": "setPassword",
      "outputs": [],
      "payable": true,
      "stateMutability": "payable",
      "type": "function"
    },
    {
      "constant": true,
      "inputs": [],
      "name": "documentCount",
      "outputs": [
        {
          "name": "",
          "type": "uint256"
        }
      ],
      "payable": false,
      "stateMutability": "view",
      "type": "function"
    },
    {
      "constant": false,
      "inputs": [
        {
          "name": "_canView",
          "type": "bool"
        },
        {
          "name": "_canModify",
          "type": "bool"
        },
        {
          "name": "_sender",
          "type": "address"
        }
      ],
      "name": "documentRequest",
      "outputs": [],
      "payable": false,
      "stateMutability": "nonpayable",
      "type": "function"
    },
    {
      "constant": true,
      "inputs": [
        {
          "name": "_document",
          "type": "bytes32"
        }
      ],
      "name": "getDocument",
      "outputs": [
        {
          "name": "",
          "type": "address"
        },
        {
          "name": "",
          "type": "address"
        },
        {
          "name": "",
          "type": "bytes32"
        },
        {
          "name": "",
          "type": "bytes32"
        },
        {
          "name": "",
          "type": "address"
        },
        {
          "name": "",
          "type": "uint256"
        },
        {
          "name": "",
          "type": "string"
        }
      ],
      "payable": false,
      "stateMutability": "view",
      "type": "function"
    },
    {
      "constant": true,
      "inputs": [
        {
          "name": "_password",
          "type": "bytes32"
        }
      ],
      "name": "authenticateEntity",
      "outputs": [
        {
          "name": "",
          "type": "bool"
        },
        {
          "name": "",
          "type": "uint256"
        }
      ],
      "payable": false,
      "stateMutability": "view",
      "type": "function"
    },
    {
      "constant": false,
      "inputs": [
        {
          "name": "_document",
          "type": "bytes32"
        }
      ],
      "name": "removeDocument",
      "outputs": [
        {
          "name": "",
          "type": "bool"
        }
      ],
      "payable": true,
      "stateMutability": "payable",
      "type": "function"
    },
    {
      "constant": false,
      "inputs": [
        {
          "name": "_person",
          "type": "address"
        },
        {
          "name": "_canView",
          "type": "bool"
        },
        {
          "name": "_canModify",
          "type": "bool"
        },
        {
          "name": "_canModifyDocument",
          "type": "bool"
        }
      ],
      "name": "addProfileRequest",
      "outputs": [],
      "payable": false,
      "stateMutability": "nonpayable",
      "type": "function"
    },
    {
      "constant": false,
      "inputs": [
        {
          "name": "_person",
          "type": "address"
        },
        {
          "name": "_comments",
          "type": "string"
        }
      ],
      "name": "approvePersonVerificationDetails",
      "outputs": [],
      "payable": true,
      "stateMutability": "payable",
      "type": "function"
    },
    {
      "constant": false,
      "inputs": [
        {
          "name": "_document",
          "type": "bytes32"
        },
        {
          "name": "_comment",
          "type": "string"
        }
      ],
      "name": "rejectDocument",
      "outputs": [
        {
          "name": "",
          "type": "bool"
        }
      ],
      "payable": true,
      "stateMutability": "payable",
      "type": "function"
    },
    {
      "constant": false,
      "inputs": [
        {
          "name": "newOwner",
          "type": "address"
        }
      ],
      "name": "transferOwnership",
      "outputs": [],
      "payable": false,
      "stateMutability": "nonpayable",
      "type": "function"
    },
    {
      "constant": false,
      "inputs": [
        {
          "name": "_recipient",
          "type": "address"
        }
      ],
      "name": "destroyAndSend",
      "outputs": [],
      "payable": false,
      "stateMutability": "nonpayable",
      "type": "function"
    },
    {
      "constant": true,
      "inputs": [],
      "name": "personVerificationRequestForMe",
      "outputs": [
        {
          "name": "",
          "type": "uint256[]"
        }
      ],
      "payable": false,
      "stateMutability": "view",
      "type": "function"
    },
    {
      "constant": true,
      "inputs": [],
      "name": "getEntity",
      "outputs": [
        {
          "name": "",
          "type": "address"
        },
        {
          "name": "",
          "type": "bytes32"
        },
        {
          "name": "",
          "type": "bytes32"
        },
        {
          "name": "",
          "type": "uint256"
        },
        {
          "name": "",
          "type": "uint256"
        }
      ],
      "payable": false,
      "stateMutability": "view",
      "type": "function"
    },
    {
      "anonymous": false,
      "inputs": [
        {
          "indexed": false,
          "name": "document",
          "type": "bytes32"
        },
        {
          "indexed": false,
          "name": "recipient",
          "type": "address"
        },
        {
          "indexed": false,
          "name": "name",
          "type": "bytes32"
        },
        {
          "indexed": false,
          "name": "comments",
          "type": "string"
        }
      ],
      "name": "DocumentIssued",
      "type": "event"
    },
    {
      "anonymous": false,
      "inputs": [
        {
          "indexed": false,
          "name": "document",
          "type": "bytes32"
        },
        {
          "indexed": false,
          "name": "approver",
          "type": "address"
        },
        {
          "indexed": false,
          "name": "comments",
          "type": "string"
        }
      ],
      "name": "DocumentApproved",
      "type": "event"
    },
    {
      "anonymous": false,
      "inputs": [
        {
          "indexed": false,
          "name": "document",
          "type": "bytes32"
        },
        {
          "indexed": false,
          "name": "approver",
          "type": "address"
        },
        {
          "indexed": false,
          "name": "comments",
          "type": "string"
        }
      ],
      "name": "DocumentRejected",
      "type": "event"
    },
    {
      "anonymous": false,
      "inputs": [
        {
          "indexed": false,
          "name": "addrs",
          "type": "address"
        },
        {
          "indexed": false,
          "name": "fName",
          "type": "bytes32"
        },
        {
          "indexed": false,
          "name": "occupation",
          "type": "bytes32"
        },
        {
          "indexed": false,
          "name": "income",
          "type": "uint256"
        },
        {
          "indexed": false,
          "name": "dob",
          "type": "bytes11"
        },
        {
          "indexed": false,
          "name": "gender",
          "type": "bytes1"
        },
        {
          "indexed": false,
          "name": "rAddress1",
          "type": "bytes32"
        },
        {
          "indexed": false,
          "name": "rAddress2",
          "type": "bytes32"
        },
        {
          "indexed": false,
          "name": "mobile",
          "type": "uint256"
        },
        {
          "indexed": false,
          "name": "email",
          "type": "bytes32"
        },
        {
          "indexed": false,
          "name": "country",
          "type": "bytes32"
        }
      ],
      "name": "PersonAdded",
      "type": "event"
    },
    {
      "anonymous": false,
      "inputs": [
        {
          "indexed": false,
          "name": "addrs",
          "type": "address"
        },
        {
          "indexed": false,
          "name": "fName",
          "type": "bytes32"
        },
        {
          "indexed": false,
          "name": "occupation",
          "type": "bytes32"
        },
        {
          "indexed": false,
          "name": "income",
          "type": "uint256"
        },
        {
          "indexed": false,
          "name": "dob",
          "type": "bytes11"
        },
        {
          "indexed": false,
          "name": "gender",
          "type": "bytes1"
        },
        {
          "indexed": false,
          "name": "rAddress1",
          "type": "bytes32"
        },
        {
          "indexed": false,
          "name": "rAddress2",
          "type": "bytes32"
        },
        {
          "indexed": false,
          "name": "mobile",
          "type": "uint256"
        },
        {
          "indexed": false,
          "name": "email",
          "type": "bytes32"
        },
        {
          "indexed": false,
          "name": "country",
          "type": "bytes32"
        }
      ],
      "name": "PersonUpdated",
      "type": "event"
    },
    {
      "anonymous": false,
      "inputs": [
        {
          "indexed": false,
          "name": "addrs",
          "type": "address"
        },
        {
          "indexed": false,
          "name": "name",
          "type": "bytes32"
        },
        {
          "indexed": false,
          "name": "regNo",
          "type": "bytes32"
        },
        {
          "indexed": false,
          "name": "etype",
          "type": "uint256"
        }
      ],
      "name": "EntityAdded",
      "type": "event"
    },
    {
      "anonymous": false,
      "inputs": [
        {
          "indexed": true,
          "name": "previousOwner",
          "type": "address"
        },
        {
          "indexed": true,
          "name": "newOwner",
          "type": "address"
        }
      ],
      "name": "OwnershipTransferred",
      "type": "event"
    }
  ],
  "bytecode": "0x606060405260008054600160a060020a033316600160a060020a031990911617905561358e806100306000396000f3006060604052600436106101e25763ffffffff7c01000000000000000000000000000000000000000000000000000000006000350416630467b1f381146101e75780631e1e15171461024d57806329df4ffd146102725780632b2805db146102ae5780632c83234a146103985780632d3924d6146103b25780633d282e9b146103d9578063469d3eb8146103ec5780634b68f09414610437578063536992761461044d5780635545d17514610464578063596214961461054f578063667c94e7146105625780636ac21ff41461057657806378495bf8146105d357806383197ef0146105f857806384a0a8c41461060b5780638ada2cf61461061e5780638da5cb5b146106be5780638ec4dc95146106ed5780639131971d146107ca57806395189f86146107de5780639661819c1461081a578063982aa8b41461082d5780639d09c291146108405780639e6a93f2146108c35780639f391544146108d7578063a5b16b2e146108e2578063a6d194f6146108f5578063b10d6b411461091e578063b234feb8146109e5578063c350184814610a15578063cf1c1fd314610a20578063e5a8d93714610a4e578063f2539c7c14610aa2578063f2fde38b14610aed578063f5074f4114610b0c578063fd4c6e7f14610b2b578063ff200d2b14610b3e575b600080fd5b34156101f257600080fd5b6101fa610b8c565b60405160208082528190810183818151815260200191508051906020019060200280838360005b83811015610239578082015183820152602001610221565b505050509050019250505060405180910390f35b610270600160a060020a0360043516602435151560443515156064351515610c9c565b005b610270600435602435604435600160a860020a031960643516600160f860020a03196084351660a43560c43560e4356101043561012435610e59565b34156102b957600080fd5b6102c4600435611008565b604051600160a060020a038089168252878116602083015260408201879052606082018690528416608082015260a0810183600281111561030157fe5b60ff16815260408282038101602083019081528454600260018216156101000260001901909116049183018290529160600190849080156103835780601f1061035857610100808354040283529160200191610383565b820191906000526020600020905b81548152906001019060200180831161036657829003601f168201915b50509850505050505050505060405180910390f35b610270600160a060020a0360043581169060243516611055565b34156103bd57600080fd5b6103c5611284565b604051901515815260200160405180910390f35b34156103e457600080fd5b6101fa6112b9565b6103c5600480359060446024803590810190830135806020601f820181900481020160405190810160405281815292919060208401838380828437509496506113d295505050505050565b341561044257600080fd5b6103c560043561150f565b610270600435600160a060020a0360243516611547565b341561046f57600080fd5b61047a60043561178e565b604051600160a060020a03808c168252602082018b9052600160f860020a03198a16604083015260608201899052878116608083015260a0820187905260c082018690528316610100820152610120810182905261014060e0820181815290820185818151815260200191508051906020019080838360005b8381101561050b5780820151838201526020016104f3565b50505050905090810190601f1680156105385780820380516001836020036101000a031916815260200191505b509b50505050505050505050505060405180910390f35b341561055a57600080fd5b6103c5611b5f565b610270600435602435604435606435611b8a565b6103c5600480359060248035600160a060020a0316916044359160849060643590810190830135806020601f82018190048102016040519081016040528181529291906020840183838082843750949650611cbb95505050505050565b34156105de57600080fd5b6105e6611eb0565b60405190815260200160405180910390f35b341561060357600080fd5b610270611eb6565b341561061657600080fd5b6105e6611edf565b341561062957600080fd5b61063d600160a060020a0360043516611ee5565b604051600160a060020a03909c168c5260208c019a909a526040808c019990995260608b019790975260808a0195909552600160a860020a031990931660a0890152600160f860020a031990911660c088015260e0870152610100860152610120850152610140840152610160830191909152610180909101905180910390f35b34156106c957600080fd5b6106d1611f60565b604051600160a060020a03909116815260200160405180910390f35b34156106f857600080fd5b610700611f6f565b604051600160a060020a038d168152602081018c9052604081018b9052606081018a9052600160a860020a031989166080820152600160f860020a0319881660a082015260c0810187905260e08101869052610100810185905261012081018490526101408101839052610180610160820181815290820183818151815260200191508051906020019060200280838360005b838110156107ab578082015183820152602001610793565b505050509050019d505050505050505050505050505060405180910390f35b610270600160a060020a03600435166120ab565b610270600435602435604435600160a860020a031960643516600160f860020a03196084351660a43560c43560e4356101043561012435612221565b341561082557600080fd5b6101fa6123cf565b341561083857600080fd5b6101fa612472565b341561084b57600080fd5b61085f600160a060020a036004351661251c565b604051600160a060020a03909916895260208901979097526040808901969096526060880194909452600160f860020a0319909216608087015260a0860152151560c0850152151560e0840152901515610100830152610120909101905180910390f35b610270600160a060020a036004351661275e565b6102706004356127e8565b34156108ed57600080fd5b6105e661282c565b341561090057600080fd5b61027060043515156024351515600160a060020a0360443516612832565b341561092957600080fd5b6109346004356129b6565b604051600160a060020a038089168252878116602083015260408201879052606082018690528416608082015260a0810183905260e060c0820181815290820183818151815260200191508051906020019080838360005b838110156109a457808201518382015260200161098c565b50505050905090810190601f1680156109d15780820380516001836020036101000a031916815260200191505b509850505050505050505060405180910390f35b34156109f057600080fd5b6109fb600435612b0f565b604051911515825260208201526040908101905180910390f35b6103c5600435612b65565b3415610a2b57600080fd5b610270600160a060020a0360043516602435151560443515156064351515612beb565b61027060048035600160a060020a03169060446024803590810190830135806020601f82018190048102016040519081016040528181529291906020840183838082843750949650612e0695505050505050565b6103c5600480359060446024803590810190830135806020601f82018190048102016040519081016040528181529291906020840183838082843750949650612f8c95505050505050565b3415610af857600080fd5b610270600160a060020a0360043516613094565b3415610b1757600080fd5b610270600160a060020a0360043516613122565b3415610b3657600080fd5b6101fa613149565b3415610b4957600080fd5b610b5161328d565b604051600160a060020a03909516855260208501939093526040808501929092526060840152608083019190915260a0909101905180910390f35b610b9461332f565b6000610b9e61332f565b600033600160a060020a03161515610bb557600080fd5b600160a060020a03338116600090815260086020526040902060010154161515610bde57600080fd5b60035460009350604051805910610bf25750595b90808252806020026020018201604052509150600090505b600354811015610c955733600160a060020a0316600382815481101515610c2d57fe5b6000918252602090912060016007909202010154600160a060020a03161415610c8d576003805482908110610c5e57fe5b906000526020600020906007020160000154828481518110610c7c57fe5b602090810290910101526001909201915b600101610c0a565b5092915050565b600033600160a060020a03161515610cb357600080fd5b600160a060020a0385161515610cc857600080fd5b600160a060020a03338116600090815260066020526040902054161515610cee57600080fd5b600160a060020a03858116600090815260086020526040902060010154161515610d1757600080fd5b5060005b600154811015610e525784600160a060020a0316600182815481101515610d3e57fe5b6000918252602090912060016004909202010154600160a060020a0316148015610d98575033600160a060020a0316600182815481101515610d7c57fe5b6000918252602090912060049091020154600160a060020a0316145b15610e4a5783600182815481101515610dad57fe5b906000526020600020906004020160010160146101000a81548160ff02191690831515021790555082600182815481101515610de557fe5b906000526020600020906004020160010160156101000a81548160ff02191690831515021790555081600182815481101515610e1d57fe5b906000526020600020906004020160010160166101000a81548160ff021916908315150217905550610e52565b600101610d1b565b5050505050565b600160a060020a03338116600090815260066020526040902054161515610e7f57600080fd5b6007805460018101610e918382613341565b5060009182526020808320919091018054600160a060020a031990811633600160a060020a0381169182179093558085526006938490526040948590208054909216178155600281018e9055600381018d9055600481018c90556005810180546affffffffffffffffffffff191660a860020a8d04176bff000000000000000000000019166b01000000000000000000000060f860020a8d0402179055918201889055600782018790556008820186905560098201859055600a9091018390557f78aebb31e26bab178d423b4a1ad852ed26a583cd60e0e9315acaff85bc508eb4918c908c908c908c908c908c908c908c908c908c9051600160a060020a03909b168b5260208b01999099526040808b019890985260608a0196909652600160a860020a03199094166080890152600160f860020a031990921660a088015260c087015260e0860152610100850152610120840152610140830191909152610160909101905180910390a150505050505050505050565b6004602081905260009182526040909120805460018201546002830154600384015494840154600160a060020a039384169592841694919381169160a060020a90910460ff169060050187565b600160a060020a038216151561106a57600080fd5b600160a060020a0382811660009081526006602052604090205416151561109057600080fd5b33600160a060020a031615156110a557600080fd5b600160a060020a033381166000908152600860205260409020600101541615156110ce57600080fd5b600160a060020a03811615156110e357600080fd5b600160a060020a0381811660009081526008602052604090206001015416151561110c57600080fd5b600380546001810161111e8382613365565b9160005260206000209060070201600060e060405190810160405280600380549050815260200133600160a060020a0316815260200133600160a060020a0316815260200185600160a060020a0316815260200186600160a060020a03168152602001602060405190810160405260008082529082526020909101905b9052919050815181556020820151600182018054600160a060020a031916600160a060020a03929092169190911790556040820151600282018054600160a060020a031916600160a060020a03929092169190911790556060820151600382018054600160a060020a031916600160a060020a03929092169190911790556080820151600482018054600160a060020a031916600160a060020a039290921691909117905560a08201518160050190805161125a929160200190613391565b5060c082015160068201805460ff1916600183600281111561127857fe5b02179055505050505050565b600160a060020a0333811660009081526008602052604081206001015490911615156112b2575060006112b6565b5060015b90565b6112c161332f565b60006112cb61332f565b600033600160a060020a031615156112e257600080fd5b600160a060020a0333811660009081526006602052604090205416151561130857600080fd5b6001546000935060405180591061131c5750595b90808252806020026020018201604052509150600090505b600154811015610c955733600160a060020a031660018281548110151561135757fe5b6000918252602090912060049091020154600160a060020a031614156113c657600180548290811061138557fe5b6000918252602090912060016004909202010154600160a060020a03168284815181106113ae57fe5b600160a060020a039092166020928302909101909101525b60019283019201611334565b600082815260046020526040812054600160a060020a031615156113f557600080fd5b60008381526004602081905260409091209081018054600160a060020a03191633600160a060020a03161774ff0000000000000000000000000000000000000000191660a060020a179055600501828051611454929160200190613391565b507f56972023b86190bb861a2e74abd19fe3d37b09c39162c265f867ff216cab52dc833384604051838152600160a060020a038316602082015260606040820181815290820183818151815260200191508051906020019080838360005b838110156114ca5780820151838201526020016114b2565b50505050905090810190601f1680156114f75780820380516001836020036101000a031916815260200191505b5094505050505060405180910390a150600192915050565b600033600160a060020a0316151561152657600080fd5b5033600160a060020a03166000908152600660205260409020600101541490565b33600160a060020a0316151561155c57600080fd5b600160a060020a0333811660009081526008602052604090206001015416151561158557600080fd5b600160a060020a038116151561159a57600080fd5b600160a060020a038181166000908152600860205260409020600101541615156115c357600080fd5b60038054600181016115d58382613365565b9160005260206000209060070201600060e0604051908101604090815260038054808452600160a060020a0388166020850152918301918890811061161657fe5b600091825260209182902060026007909202010154600160a060020a031682526003805492909101918890811061164957fe5b60009182526020918290206003600790920201810154600160a060020a03168352805492909101918890811061167b57fe5b600091825260209182902060046007909202010154600160a060020a03168252600380549290910191889081106116ae57fe5b90600052602060002090600702016005018054600181600116156101000203166002900480601f0160208091040260200160405190810160405280929190818152602001828054600181600116156101000203166002900480156117535780601f1061172857610100808354040283529160200191611753565b820191906000526020600020905b81548152906001019060200180831161173657829003601f168201915b5050505050815260200160038781548110151561176c57fe5b600091825260209091206006600790920201015460ff16600281111561119b57fe5b60008060008060008060006117a161332f565b6000808033600160a060020a031615156117ba57600080fd5b600160a060020a033381166000908152600860205260409020600101541615156117e357600080fd5b5060005b600354811015611b51578b60038281548110151561180157fe5b9060005260206000209060070201600001541415611b4957600380548290811061182757fe5b906000526020600020906007020160040160009054906101000a9004600160a060020a03166006600060038481548110151561185f57fe5b906000526020600020906007020160040160009054906101000a9004600160a060020a0316600160a060020a0316600160a060020a0316815260200190815260200160002060020154600660006003858154811015156118bb57fe5b6000918252602080832060079290920290910160040154600160a060020a03168352820192909252604001812060050154600380546b01000000000000000000000090920460f860020a02926006929091908790811061191757fe5b6000918252602080832060046007909302019190910154600160a060020a03168352820192909252604001902060090154600380548690811061195657fe5b906000526020600020906007020160020160009054906101000a9004600160a060020a03166008600060038881548110151561198e57fe5b6000918252602080832060026007909302019190910154600160a060020a0316835282019290925260400190205460038054889081106119ca57fe5b600091825260209091206006600790920201015460ff1660028111156119ec57fe5b60038054899081106119fa57fe5b9060005260206000209060070201600501600389815481101515611a1a57fe5b60009182526020822060036007909202018101548154600160a060020a039091169260089290918d908110611a4b57fe5b906000526020600020906007020160030160009054906101000a9004600160a060020a0316600160a060020a0316600160a060020a0316815260200190815260200160002060000154828054600181600116156101000203166002900480601f016020809104026020016040519081016040528092919081815260200182805460018160011615610100020316600290048015611b295780601f10611afe57610100808354040283529160200191611b29565b820191906000526020600020905b815481529060010190602001808311611b0c57829003601f168201915b505050505092509a509a509a509a509a509a509a509a509a509a50611b51565b6001016117e7565b509193959799509193959799565b600160a060020a0333811660009081526006602052604081205490911615156112b2575060006112b6565b600160a060020a033381166000908152600860205260409020600101541615611bb257600080fd5b6009805460018101611bc48382613341565b5060009182526020808320919091018054600160a060020a033316600160a060020a031991821681179092558184526008909252604090922086815560028101869055600181810180549093169093179091556004018390558190811115611c2857fe5b600160a060020a0333166000908152600860205260409020600301805460ff191660018381811115611c5657fe5b02179055507ff6066b2863e57bcf1b32ac4baa94493f4e622db517afa4e14fea29d9a71ac1ff33858484604051600160a060020a039094168452602084019290925260408084019190915260608301919091526080909101905180910390a150505050565b600084815260046020526040812054600160a060020a031615611cdd57600080fd5b33600160a060020a03161515611cf257600080fd5b600160a060020a03848116600090815260066020526040902054161515611d1857600080fd5b600160a060020a0384166000908152600660205260409020600b01805460018101611d438382613341565b5060009182526020909120018590556005805460018101611d648382613341565b50600091825260208083209190910187905586825260049081905260409091208054600160a060020a03338116600160a060020a03199283161783556001830180549189169190921617905560038101859055908101805474ff000000000000000000000000000000000000000019169055600501828051611dea929160200190613391565b507f346ba1ebf240f6e90cde2ae08bb5a8399213fca3203638f56ac35aae20ade08785858585604051848152600160a060020a03841660208201526040810183905260806060820181815290820183818151815260200191508051906020019080838360005b83811015611e68578082015183820152602001611e50565b50505050905090810190601f168015611e955780820380516001836020036101000a031916815260200191505b509550505050505060405180910390a1506001949350505050565b60075490565b60005433600160a060020a03908116911614611ed157600080fd5b600054600160a060020a0316ff5b60095490565b600660208190526000918252604090912080546001820154600283015460038401546004850154600586015496860154600787015460088801546009890154600a90990154600160a060020a0390981699969895979496939560a860020a8502956b01000000000000000000000090950460f860020a02948c565b600054600160a060020a031681565b6000806000806000806000806000806000611f8861332f565b600160a060020a03338116600090815260066020526040902054161515611fae57600080fd5b33600160a060020a039081166000908152600660208181526040928390208054600282015460038301546004840154600585015496850154600786015460088701546009880154600a890154600b909901805498909d169c969b959a949960a860020a8602996b01000000000000000000000090960460f860020a0298949793969295919491939283929182810201905190810160405280929190818152602001828054801561207e57602002820191906000526020600020905b81548152600190910190602001808311612069575b505050505090509b509b509b509b509b509b509b509b509b509b509b509b50909192939495969798999a9b565b600033600160a060020a031615156120c257600080fd5b600160a060020a03821615156120d757600080fd5b600160a060020a033381166000908152600660205260409020541615156120fd57600080fd5b600160a060020a0382811660009081526008602052604090206001015416151561212657600080fd5b5060005b60015481101561221d5781600160a060020a031660018281548110151561214d57fe5b6000918252602090912060016004909202010154600160a060020a03161480156121a7575033600160a060020a031660018281548110151561218b57fe5b6000918252602090912060049091020154600160a060020a0316145b156122155760018054829081106121ba57fe5b6000918252602082206004909102018054600160a060020a031916815560018101805476ffffffffffffffffffffffffffffffffffffffffffffff19169055600281018290559061220e600383018261340f565b505061221d565b60010161212a565b5050565b600160a060020a03338116600090815260066020526040902054161561224657600080fd5b60078054600181016122588382613341565b5060009182526020808320919091018054600160a060020a031990811633600160a060020a0381169182179093558085526006938490526040948590208054909216178155600281018e9055600381018d9055600481018c90556005810180546affffffffffffffffffffff191660a860020a8d04176bff000000000000000000000019166b01000000000000000000000060f860020a8d0402179055918201889055600782018790556008820186905560098201859055600a9091018390557f5bf1e082a68d3ae0eac40b72bbe418fa9d0a46b07372d718e53fae95deca4755918c908c908c908c908c908c908c908c908c908c9051600160a060020a03909b168b5260208b01999099526040808b019890985260608a0196909652600160a860020a03199094166080890152600160f860020a031990921660a088015260c087015260e0860152610100850152610120840152610140830191909152610160909101905180910390a150505050505050505050565b6123d761332f565b33600160a060020a031615156123ec57600080fd5b6008600033600160a060020a0316600160a060020a0316815260200190815260200160002060060180548060200260200160405190810160405280929190818152602001828054801561246857602002820191906000526020600020905b8154600160a060020a0316815260019091019060200180831161244a575b5050505050905090565b61247a61332f565b600160a060020a033381166000908152600660205260409020541615156124a057600080fd5b6006600033600160a060020a0316600160a060020a03168152602001908152602001600020600b0180548060200260200160405190810160405280929190818152602001828054801561246857602002820191906000526020600020905b815481526001909101906020018083116124fe575050505050905090565b600080808080808080808033600160a060020a0316151561253c57600080fd5b600160a060020a0333811660009081526006602052604090205416151561256257600080fd5b600160a060020a038b811660009081526008602052604090206001015416151561258b57600080fd5b5060005b6001548110156127505733600160a060020a03166001828154811015156125b257fe5b6000918252602090912060049091020154600160a060020a031614801561260c57508a600160a060020a03166001828154811015156125ed57fe5b6000918252602090912060016004909202010154600160a060020a0316145b1561274857600180548290811061261f57fe5b600091825260208083206001600490930201820154600160a060020a038f8116855260089092526040909320805460039091015491909316929160ff9091169081111561266857fe5b33600160a060020a03166000908152600660205260409020600281015460058201546009909201546001805492936b010000000000000000000000900460f860020a0292889081106126b657fe5b906000526020600020906004020160010160149054906101000a900460ff166001888154811015156126e457fe5b906000526020600020906004020160010160159054906101000a900460ff1660018981548110151561271257fe5b906000526020600020906004020160010160169054906101000a900460ff16995099509950995099509950995099509950612750565b60010161258f565b509193959799909294969850565b600160a060020a038116151561277357600080fd5b600160a060020a03338116600081815260086020818152604080842060068101805497891686526007909101835290842086905593909252905290600181016127bc8382613341565b5060009182526020909120018054600160a060020a031916600160a060020a0392909216919091179055565b33600160a060020a031615156127fd57600080fd5b600160a060020a03331660008181526006602052604090208054600160a060020a031916909117815560010155565b60055490565b600033600160a060020a0316151561284957600080fd5b600160a060020a038216151561285e57600080fd5b600160a060020a0333811660009081526006602052604090205416151561288457600080fd5b600160a060020a038281166000908152600860205260409020600101541615156128ad57600080fd5b5060005b6002548110156129b05781600160a060020a03166002828154811015156128d457fe5b6000918252602090912060016004909202010154600160a060020a031614801561292e575033600160a060020a031660028281548110151561291257fe5b6000918252602090912060049091020154600160a060020a0316145b156129a8578360028281548110151561294357fe5b906000526020600020906004020160010160146101000a81548160ff0219169083151502179055508260028281548110151561297b57fe5b906000526020600020906004020160010160156101000a81548160ff0219169083151502179055506129b0565b6001016128b1565b50505050565b6000806000806000806129c761332f565b600088815260046020526040902054600160a060020a031615156129ea57600080fd5b60008881526004602081905260409091208054600182015460028084015460038501549490950154600160a060020a039384169592841694929381169160a060020a90910460ff1690811115612a3c57fe5b600460008f60001916600019168152602001908152602001600020600501808054600181600116156101000203166002900480601f016020809104026020016040519081016040528092919081815260200182805460018160011615610100020316600290048015612aef5780601f10612ac457610100808354040283529160200191612aef565b820191906000526020600020905b815481529060010190602001808311612ad257829003601f168201915b505050505090509650965096509650965096509650919395979092949650565b60008033600160a060020a03161515612b2757600080fd5b600160a060020a033316600090815260086020526040902060028101546003909101549084149060ff166001811115612b5c57fe5b91509150915091565b60008181526004602052604081205433600160a060020a03908116911614612b8c57600080fd5b600082815260046020819052604082208054600160a060020a03199081168255600182018054909116905560028101839055600381018390559081018054600160a860020a031916905590612be4600583018261340f565b5050919050565b33600160a060020a03161515612c0057600080fd5b600160a060020a0384161515612c1557600080fd5b600160a060020a03848116600090815260066020526040902054161515612c3b57600080fd5b600160a060020a03338116600090815260086020526040902060010154161515612c6457600080fd5b60018054808201612c758382613456565b9160005260206000209060040201600060e06040519081016040528088600160a060020a0316815260200133600160a060020a0316815260200187151581526020018615158152602001851515815260200160008152602001602060405190810160405260008152905291905081518154600160a060020a031916600160a060020a03919091161781556020820151600182018054600160a060020a031916600160a060020a0392909216919091179055604082015160018201805491151560a060020a0274ff000000000000000000000000000000000000000019909216919091179055606082015160018201805491151560a860020a0275ff0000000000000000000000000000000000000000001990921691909117905560808201516001820180549115157601000000000000000000000000000000000000000000000276ff000000000000000000000000000000000000000000001990921691909117905560a0820151816002015560c082015181600301908051612dfc929160200190613391565b5050505050505050565b6000600160a060020a0383161515612e1d57600080fd5b600160a060020a03838116600090815260066020526040902054161515612e4357600080fd5b33600160a060020a03161515612e5857600080fd5b600160a060020a03338116600090815260086020526040902060010154161515612e8157600080fd5b5060005b600354811015612f875782600160a060020a0316600382815481101515612ea857fe5b6000918252602090912060046007909202010154600160a060020a0316148015612f05575033600160a060020a0316600382815481101515612ee657fe5b6000918252602090912060036007909202010154600160a060020a0316145b15612f7f576001600382815481101515612f1b57fe5b60009182526020909120600660079092020101805460ff19166001836002811115612f4257fe5b021790555081600382815481101515612f5757fe5b9060005260206000209060070201600501908051612f79929160200190613391565b50612f87565b600101612e85565b505050565b600082815260046020526040812054600160a060020a03161515612faf57600080fd5b60008381526004602081905260409091209081018054600160a060020a03191633600160a060020a03161774ff000000000000000000000000000000000000000019167402000000000000000000000000000000000000000017905560050182805161301f929160200190613391565b507f34c66de432b94e8b9dcb23b78836659ed800c8fdbc7f2c40a9b507dfb3333dbd833384604051838152600160a060020a03831660208201526060604082018181529082018381815181526020019150805190602001908083836000838110156114ca5780820151838201526020016114b2565b60005433600160a060020a039081169116146130af57600080fd5b600160a060020a03811615156130c457600080fd5b600054600160a060020a0380831691167f8be0079c531659141344cd1fd0a4f28419497f9722a3daafe3b4186f6b6457e060405160405180910390a360008054600160a060020a031916600160a060020a0392909216919091179055565b60005433600160a060020a0390811691161461313d57600080fd5b80600160a060020a0316ff5b61315161332f565b600061315b61332f565b600033600160a060020a0316151561317257600080fd5b600160a060020a0333811660009081526008602052604090206001015416151561319b57600080fd5b600354600093506040518059106131af5750595b90808252806020026020018201604052509150600090505b600354811015610c955733600160a060020a03166003828154811015156131ea57fe5b6000918252602090912060036007909202010154600160a060020a031614801561324357506000600380548390811061321f57fe5b600091825260209091206006600790920201015460ff16600281111561324157fe5b145b1561328557600380548290811061325657fe5b90600052602060002090600702016000015482848151811061327457fe5b602090810290910101526001909201915b6001016131c7565b600160a060020a03338116600090815260086020526040812060010154909182918291829182911615156132c057600080fd5b600160a060020a033381166000908152600860205260409020600180820154825460048401546003909401549190941693929160ff9091169081111561330257fe5b33600160a060020a0316600090815260086020526040902060060154939992985090965094509092509050565b60206040519081016040526000815290565b815481835581811511612f8757600083815260209020612f87918101908301613482565b815481835581811511612f8757600702816007028360005260206000209182019101612f87919061349c565b828054600181600116156101000203166002900490600052602060002090601f016020900481019282601f106133d257805160ff19168380011785556133ff565b828001600101855582156133ff579182015b828111156133ff5782518255916020019190600101906133e4565b5061340b929150613482565b5090565b50805460018160011615610100020316600290046000825580601f106134355750613453565b601f0160209004906000526020600020908101906134539190613482565b50565b815481835581811511612f8757600402816004028360005260206000209182019101612f879190613505565b6112b691905b8082111561340b5760008155600101613488565b6112b691905b8082111561340b576000808255600182018054600160a060020a0319908116909155600283018054821690556003830180548216905560048301805490911690556134f0600583018261340f565b5060068101805460ff191690556007016134a2565b6112b691905b8082111561340b578054600160a060020a031916815560018101805476ffffffffffffffffffffffffffffffffffffffffffffff19169055600060028201819055613559600383018261340f565b5060040161350b5600a165627a7a72305820193daa65156cc06ac5211744582e663e869728ab715d5ca0194560ab652fee0f0029",
  "source": "pragma solidity ^0.4.18;\r\nimport \"./lib/StringUtils.sol\";\r\nimport \"./ownership/Ownable.sol\";\r\nimport \"./lifecycle/Destructible.sol\";\r\n\r\n\r\ncontract App is Ownable,Destructible {\r\n    /**\r\n     * This is status enum used to indentify document status\r\n     */\r\n    enum Status {DEFAULT,APPROVED,REJECTED}\r\n\r\n    enum EType {UNIVEERSITY,ORGANISATION}\r\n\r\n    struct Person{\r\n        address  addrs;\r\n        bytes32 password;\r\n        bytes32  fName; // name of document\r\n        bytes32  occupation;\r\n        uint  income;\r\n        bytes11  dob;\r\n        bytes1   gender;\r\n        bytes32  rAddress1;\r\n        bytes32  rAddress2;\r\n        uint  mobile;\r\n        bytes32  email;\r\n        bytes32  country;\r\n        bytes32[]  documentList; // list of document keys so we can look them up\r\n    }\r\n\r\n    struct Entity{\r\n        bytes32 name; // name of document\r\n        address addrs;\r\n        bytes32 password;\r\n        EType etype;\r\n        bytes32 regNo;\r\n        address[] trdPrtyVerfnList;\r\n        address[]  personList;\r\n        mapping (address => uint) personRoleNo;\r\n    }\r\n\r\n    struct ProfileRequest{\r\n        address person;\r\n        address requester;\r\n        bool canView;\r\n        bool canModify;\r\n        bool canModifyDocument;\r\n        uint status;\r\n        string comments;\r\n    }\r\n    \r\n    struct TrdPrtyVerfnRequest{\r\n         uint id;\r\n         address requester;//\t\t\t\t- LTI\r\n         address requestBy;//requester org  - LTI\r\n         address requestTo;//Third party org - TPV\r\n         address requestFor;//Person\t\t- Mukund\r\n         string comments;\r\n     \t Status status;   \r\n    }\r\n\t\r\n\tstruct Document{\r\n        address issuer;\r\n        address recipient;\r\n        bytes32 document; // this is only document hash value\r\n        bytes32 name; // name of document\r\n        address approver;\r\n        Status status; // = Status.DEFAULT;// this is document status, used enum\r\n        string comments;\r\n        mapping (address => uint) documentIndex;\r\n    }\r\n\t\r\n\t\r\n    /**\r\n     * mapping of records\r\n     */\r\n    ProfileRequest[]  profileRequest;\r\n    ProfileRequest[]  docRequest;\r\n    TrdPrtyVerfnRequest[] trdPrtyVerfnRequests;\r\n    \r\n    mapping (bytes32 => Document) public documents;\r\n    bytes32[]  documentList;\r\n    \r\n    mapping (address => Person) public persons;\r\n    address[]  personList;\r\n    \r\n    mapping (address => Entity) entities;\r\n    address[]  entityList;\r\n\r\n    /**\r\n     * events\r\n     */\r\n    event DocumentIssued(bytes32 document,address recipient,bytes32 name, string comments);\r\n\r\n    event DocumentApproved(bytes32 document,address approver,string comments);\r\n\r\n    event DocumentRejected(bytes32 document,address approver,string comments);\r\n\r\n    event PersonAdded(address addrs,bytes32 fName,bytes32 occupation, uint income,bytes11 dob, bytes1 gender,bytes32 rAddress1,bytes32 rAddress2,uint mobile,bytes32 email,bytes32 country);\r\n    event PersonUpdated(address addrs,bytes32 fName,bytes32 occupation, uint income,bytes11 dob, bytes1 gender,bytes32 rAddress1,bytes32 rAddress2,uint mobile,bytes32 email,bytes32 country);\r\n\r\n    event EntityAdded(address addrs,bytes32 name,bytes32 regNo,uint etype);\r\n    \r\n\t\r\n\t/**\r\n\t *This method is used to raise third party verification request \r\n\t * sender would be the Organisation who is raising the request \r\n\t */\r\n\tfunction personVerificationRequest(address _person,address _requestTo) payable public{\r\n\t    \trequire(_person !=address(0));\r\n\t        require(persons[_person].addrs!=address(0));\r\n\t    \trequire(msg.sender !=address(0));\r\n\t        require(entities[msg.sender].addrs!=address(0));\r\n\t        require(_requestTo !=address(0));\r\n\t        require(entities[_requestTo].addrs!=address(0));\r\n\t        trdPrtyVerfnRequests.push(TrdPrtyVerfnRequest(trdPrtyVerfnRequests.length,msg.sender,msg.sender,_requestTo,_person,\"\",Status.DEFAULT));\r\n    }\r\n\t\r\n    /**\r\n\t *This method will give list of person which require third party verification\r\n\t * this is for third party in request tab\r\n\t */\r\n\tfunction personVerificationRequestForMe() public view returns(uint[]){\r\n\t    \trequire(msg.sender !=address(0));\r\n\t        require(entities[msg.sender].addrs!=address(0));\r\n\t\t\tuint count=0;\r\n\t\t\tuint[] memory ids = new uint[](trdPrtyVerfnRequests.length);\r\n\t\t\tfor(uint256 i = 0; i < trdPrtyVerfnRequests.length; i++){\r\n\t            if(trdPrtyVerfnRequests[i].requestTo == msg.sender && trdPrtyVerfnRequests[i].status == Status.DEFAULT){\r\n\t                 ids[count]=trdPrtyVerfnRequests[i].id;\r\n\t                 count++;\r\n\t            }\r\n\t        }\r\n\t        return ids;\r\n\t}\r\n\t\r\n\t\r\n\t/**\r\n\t *This method is used to raise third party verification request\r\n\t * this is for org which has raised request and can see in verification tab  \r\n\t */\r\n\tfunction personVerificationRequestByMe() public view returns(uint[]){\r\n\t    \trequire(msg.sender !=address(0));\r\n\t        require(entities[msg.sender].addrs!=address(0));\r\n\t        uint count=0;\r\n\t        uint[] memory ids = new uint[](trdPrtyVerfnRequests.length);\r\n\t        \r\n\t        for(uint256 i = 0; i < trdPrtyVerfnRequests.length; i++){\r\n\t            if(trdPrtyVerfnRequests[i].requester == msg.sender){\r\n\t                 ids[count]=trdPrtyVerfnRequests[i].id;\r\n\t                 count++;\r\n\t            }\r\n\t        }\r\n\t        return ids;\r\n\t}\r\n\t\r\n\tfunction personVerificationDetails(uint _id) public view returns(address,bytes32,bytes1,bytes32,address,bytes32,uint,string,address,bytes32){\r\n\t    \trequire(msg.sender !=address(0));\r\n\t        require(entities[msg.sender].addrs!=address(0));\r\n\t        \r\n\t        for(uint256 i = 0; i < trdPrtyVerfnRequests.length; i++){\r\n\t            if(trdPrtyVerfnRequests[i].id == _id){\r\n\t\t\t\t\treturn(trdPrtyVerfnRequests[i].requestFor,\r\n\t\t\t\t\t    persons[trdPrtyVerfnRequests[i].requestFor].fName,\r\n\t\t\t\t\t    persons[trdPrtyVerfnRequests[i].requestFor].gender,\r\n\t\t\t\t\t    persons[trdPrtyVerfnRequests[i].requestFor].email,\r\n\t\t\t\t\t    trdPrtyVerfnRequests[i].requestBy,\r\n\t\t\t\t\t    entities[trdPrtyVerfnRequests[i].requestBy].name,\r\n\t\t\t\t\t    uint(trdPrtyVerfnRequests[i].status),\r\n\t\t\t\t\t    trdPrtyVerfnRequests[i].comments,\r\n\t\t\t\t\t    trdPrtyVerfnRequests[i].requestTo,\r\n\t\t\t\t\t    entities[trdPrtyVerfnRequests[i].requestTo].name\r\n\t\t\t\t\t);\t            \t\r\n\t            }\r\n\t        }\r\n\t}\r\n\t\r\n\tfunction approvePersonVerificationDetails(address _person,string _comments) payable public {\r\n\t\t    \trequire(_person !=address(0));\r\n\t\t        require(persons[_person].addrs!=address(0));\r\n\t\t        \r\n\t\t        require(msg.sender !=address(0));\r\n\t\t        require(entities[msg.sender].addrs!=address(0));\r\n\t\t        \r\n\t\t        \r\n\t\t        for(uint256 i = 0; i < trdPrtyVerfnRequests.length; i++){\r\n\t\t            if(trdPrtyVerfnRequests[i].requestFor == _person \r\n\t\t                \t&& trdPrtyVerfnRequests[i].requestTo==msg.sender){\r\n\t\t\t\t\t\t    trdPrtyVerfnRequests[i].status = Status.APPROVED;\r\n\t\t\t\t\t\t    trdPrtyVerfnRequests[i].comments = _comments;\r\n\t\t\t\t\t\t    return;\r\n\t\t            }\r\n\t\t        }\r\n\t}\r\n\t\r\n\t\r\n\t/**\r\n\t *This method is used to raise third party verification request\r\n\t * this is for org which has raised request and can see in verification tab  \r\n\t */\r\n\tfunction sharePersonVerificationResult(uint _pid,address _target) payable public {\r\n\t\t        require(msg.sender !=address(0));\r\n\t\t        require(entities[msg.sender].addrs!=address(0));\r\n\t\t        \r\n\t\t        require(_target !=address(0));\r\n\t\t        require(entities[_target].addrs!=address(0));\r\n\t\t\t\t\r\n\t\t\t\ttrdPrtyVerfnRequests.push(TrdPrtyVerfnRequest(trdPrtyVerfnRequests.length,\r\n\t\t\t\t\t\t\t\t\t\t\t\t\t\t      _target,\r\n\t\t\t\t\t\t\t\t\t\t\t\t\t\t      trdPrtyVerfnRequests[_pid].requestBy ,\r\n\t\t\t\t\t\t\t\t\t\t\t\t\t\t      trdPrtyVerfnRequests[_pid].requestTo,\r\n\t\t\t\t\t\t\t\t\t\t\t\t\t\t      trdPrtyVerfnRequests[_pid].requestFor,\r\n\t\t\t\t\t\t\t\t\t\t\t\t\t\t      trdPrtyVerfnRequests[_pid].comments,\r\n\t\t\t\t\t\t\t\t\t\t\t\t\t\t      trdPrtyVerfnRequests[_pid].status\r\n\t\t\t\t));\r\n\t}\r\n\t\r\n\t/**\r\n\t * \r\n\t */\r\n    function addProfileRequest(address _person,bool _canView,bool _canModify,bool _canModifyDocument) public{\r\n        require(msg.sender !=address(0));\r\n        require(_person !=address(0));\r\n        require(persons[_person].addrs!=address(0));\r\n        require(entities[msg.sender].addrs!=address(0));\r\n        profileRequest.push(ProfileRequest(_person, msg.sender, _canView,_canModify,_canModifyDocument,0,\"\"));\r\n    }\r\n    \r\n\t/**\r\n\t * \r\n\t */\r\n    function personProfileRequests() public view returns(address[]){\r\n        require(msg.sender !=address(0));\r\n        require(persons[msg.sender].addrs!=address(0));\r\n        uint count=0;\r\n        address[] memory userRequest = new address[](profileRequest.length);\r\n        \r\n        for(uint256 i = 0; i < profileRequest.length; i++){\r\n            if(profileRequest[i].person == msg.sender)\r\n                    userRequest[count]=profileRequest[i].requester;\r\n                    count++;\r\n        }\r\n        \r\n        return userRequest;\r\n    }\r\n      \r\n    function profileRequestDetails(address _sender) public view returns(address,bytes32,uint,bytes32,bytes1,bytes32,bool,bool,bool){\r\n        require(msg.sender !=address(0));\r\n        require(persons[msg.sender].addrs!=address(0));\r\n        require(entities[_sender].addrs!=address(0));\r\n        \r\n        for(uint256 i = 0; i < profileRequest.length; i++){\r\n            if(profileRequest[i].person == msg.sender &&\r\n                 profileRequest[i].requester == _sender)\r\n                     return (profileRequest[i].requester,entities[_sender].name,uint(entities[_sender].etype),persons[msg.sender].fName,persons[msg.sender].gender,persons[msg.sender].email, profileRequest[i].canView,profileRequest[i].canModify,profileRequest[i].canModifyDocument);\r\n        }\r\n    }\r\n    \r\n    function updateProfileRequest(address _sender,bool _canView,bool _canModify,bool _canModifyDocument ) payable public {\r\n        require(msg.sender !=address(0));\t\r\n        require(_sender !=address(0));\r\n        require(persons[msg.sender].addrs!=address(0));\r\n        require(entities[_sender].addrs!=address(0));\r\n        \r\n        for(uint i = 0; i < profileRequest.length; i++){\r\n            if(profileRequest[i].requester == _sender && profileRequest[i].person == msg.sender) {\r\n                profileRequest[i].canView = _canView;\r\n                profileRequest[i].canModify = _canModify;\r\n                profileRequest[i].canModifyDocument = _canModifyDocument;\r\n                return;\r\n            }\r\n        }\r\n    }\r\n    \r\n    function deleteProfileRequest(address _sender) payable public {\r\n        require(msg.sender !=address(0));\t\r\n        require(_sender !=address(0));\r\n        require(persons[msg.sender].addrs!=address(0));\r\n        require(entities[_sender].addrs!=address(0));\r\n        \r\n        for(uint i = 0; i < profileRequest.length; i++){\r\n            if(profileRequest[i].requester == _sender && profileRequest[i].person == msg.sender) {\r\n                delete profileRequest[i];\r\n                return;\r\n            }\r\n        }\r\n    }\r\n    \r\n\r\n\r\n\r\n    function documentRequest(bool _canView,bool _canModify, address _sender) public{\r\n        require(msg.sender !=address(0));\r\n        require(_sender !=address(0));\r\n        require(persons[msg.sender].addrs!=address(0));\r\n        require(entities[_sender].addrs!=address(0));\r\n        for(uint i = 0;\r\n        i < docRequest.length;\r\n        ++ i){\r\n            if(docRequest[i].requester== _sender && docRequest[i].person == msg.sender) {\r\n                docRequest[i].canView = _canView;\r\n                docRequest[i].canModify = _canModify;\r\n                return;\r\n            }\r\n        }\r\n    }\r\n\r\n    function documentCount() public view returns (uint){\r\n        return documentList.length;\r\n    }\r\n\r\n    /**\r\n     * this can be done by only university\r\n     */\r\n    function removeDocument(bytes32 _document) payable public returns (bool){\r\n        // documentIndex\r\n        require(documents[_document].issuer == msg.sender);\r\n        // delete documentList[documents[_document].documentIndex[_recipient]];\r\n        delete(documents[_document]);\r\n    }\r\n\r\n    function issueDocument(bytes32 _document,address _recipient, bytes32 _name,string _comment) payable public returns (bool){\r\n        require(documents[_document].issuer == address(0));\r\n        require(msg.sender !=address(0));\r\n        require(persons[_recipient].addrs !=address(0));\r\n        persons[_recipient].documentList.push(_document);\r\n        documentList.push(_document);\r\n        documents[_document].issuer = msg.sender;\r\n        documents[_document].recipient = _recipient;\r\n        documents[_document].name = _name;\r\n        documents[_document].status = Status.DEFAULT;\r\n        documents[_document].comments=_comment;\r\n        // trigger event\r\n        DocumentIssued(_document,_recipient,_name,_comment);\r\n        return true;\r\n    }\r\n\r\n    function approveDocument(bytes32 _document,string _comment) payable public returns (bool){\r\n        require(documents[_document].issuer != address(0));\r\n        documents[_document].approver = msg.sender;\r\n        documents[_document].status = Status.APPROVED;\r\n        documents[_document].comments=_comment;\r\n        // trigger event\r\n        DocumentApproved(_document,msg.sender,_comment);\r\n        return true;\r\n    }\r\n\r\n    function rejectDocument(bytes32 _document,string _comment) payable public returns (bool){\r\n        require(documents[_document].issuer != address(0));\r\n        documents[_document].approver = msg.sender;\r\n        documents[_document].status = Status.REJECTED;\r\n        documents[_document].comments = _comment;\r\n        // trigger event\r\n        DocumentRejected(_document,msg.sender,_comment);\r\n        return true;\r\n    }\r\n\r\n    function getDocument(bytes32 _document) public view returns (address,address,bytes32,bytes32,address,uint,string){\r\n        require(documents[_document].issuer != address(0));\r\n        return (documents[_document].issuer,\r\n                    documents[_document].recipient,\r\n                    documents[_document].document,\r\n                    documents[_document].name,\r\n                    documents[_document].approver,\r\n                    uint(documents[_document].status),\r\n                    documents[_document].comments);\r\n    }\r\n\r\n    /**\r\n     * Person services\r\n     */\r\n    function personCount() public view returns (uint){\r\n        return personList.length;\r\n    }\r\n\r\n    function addPerson(bytes32 _fName,bytes32 _occupation,\r\n                     uint _income,bytes11 _dob,\r\n                     bytes1 _gender,bytes32 _rAddress1,\r\n                     bytes32 _rAddress2,uint _mobile,\r\n                     bytes32 _email,bytes32 _country) payable public{\r\n        require(persons[msg.sender].addrs == address(0));\r\n        personList.push(msg.sender);\r\n        persons[msg.sender].addrs = msg.sender;\r\n        persons[msg.sender].fName = _fName;\r\n        persons[msg.sender].occupation =_occupation;\r\n        persons[msg.sender].income =_income;\r\n        persons[msg.sender].dob =_dob;\r\n        persons[msg.sender].gender =_gender;\r\n        persons[msg.sender].rAddress1 =_rAddress1;\r\n        persons[msg.sender].rAddress2 =_rAddress2;\r\n        persons[msg.sender].mobile =_mobile;\r\n        persons[msg.sender].email =_email;\r\n        persons[msg.sender].country =_country;\r\n        // trigger event\r\n        PersonAdded(msg.sender,_fName,_occupation,_income,_dob,_gender,_rAddress1,_rAddress2,_mobile,_email,_country);\r\n    }\r\n    \r\n    function updatePerson(bytes32 _fName,bytes32 _occupation,\r\n                     uint _income,bytes11 _dob,\r\n                     bytes1 _gender,bytes32 _rAddress1,\r\n                     bytes32 _rAddress2,uint _mobile,\r\n                     bytes32 _email,bytes32 _country) payable public{\r\n        require(persons[msg.sender].addrs != address(0));\r\n        personList.push(msg.sender);\r\n        persons[msg.sender].addrs = msg.sender;\r\n        persons[msg.sender].fName = _fName;\r\n        persons[msg.sender].occupation =_occupation;\r\n        persons[msg.sender].income =_income;\r\n        persons[msg.sender].dob =_dob;\r\n        persons[msg.sender].gender =_gender;\r\n        persons[msg.sender].rAddress1 =_rAddress1;\r\n        persons[msg.sender].rAddress2 =_rAddress2;\r\n        persons[msg.sender].mobile =_mobile;\r\n        persons[msg.sender].email =_email;\r\n        persons[msg.sender].country =_country;\r\n        // trigger event\r\n        PersonUpdated(msg.sender,_fName,_occupation,_income,_dob,_gender,_rAddress1,_rAddress2,_mobile,_email,_country);\r\n    }\r\n\r\n    function isPersonExist() public view returns (bool){\r\n        if(persons[msg.sender].addrs == address(0))\r\n              return false;\r\n        else return true;\r\n    }\r\n\r\n    function setPassword(bytes32 _password) payable public{\r\n        require(msg.sender != address(0));\r\n        persons[msg.sender].addrs=msg.sender;\r\n        persons[msg.sender].password=_password;\r\n    }\r\n\r\n    function authenticatePerson(bytes32 _password) public view returns (bool){\r\n        require(msg.sender != address(0));\r\n        return (persons[msg.sender].password == _password);\r\n    }\r\n\r\n    function getPerson() public view returns (address,bytes32,bytes32,uint,bytes11,bytes1,bytes32,bytes32,uint,bytes32,bytes32,bytes32[]){\r\n        require(persons[msg.sender].addrs != address(0));\r\n        return (persons[msg.sender].addrs,\r\n            persons[msg.sender].fName,\r\n            persons[msg.sender].occupation,\r\n            persons[msg.sender].income,\r\n            persons[msg.sender].dob,\r\n            persons[msg.sender].gender,\r\n            persons[msg.sender].rAddress1,\r\n            persons[msg.sender].rAddress2,\r\n            persons[msg.sender].mobile,\r\n            persons[msg.sender].email,\r\n            persons[msg.sender].country,\r\n            persons[msg.sender].documentList);\r\n    }\r\n\r\n    function getPersonDocuments() public view returns (bytes32[]){\r\n        require(persons[msg.sender].addrs != address(0));\r\n        return persons[msg.sender].documentList;\r\n    }\r\n\r\n    /**\r\n     * Entity services\r\n     */\r\n    function authenticateEntity(bytes32 _password) public view returns (bool,uint){\r\n        require(msg.sender != address(0));\r\n        return ((entities[msg.sender].password == _password), uint(entities[msg.sender].etype));\r\n    }\r\n\r\n    function entityCount() public view returns (uint){\r\n        return entityList.length;\r\n    }\r\n\r\n    function addEntity(bytes32 _name,bytes32 _password,bytes32 _regNo,uint _etype) payable public{\r\n        require(entities[msg.sender].addrs == address(0));\r\n        entityList.push(msg.sender);\r\n        entities[msg.sender].name = _name;\r\n        entities[msg.sender].password=_password;\r\n        entities[msg.sender].addrs = msg.sender;\r\n        entities[msg.sender].regNo =_regNo;\r\n        entities[msg.sender].etype =EType(_etype);\r\n        // trigger event\r\n        EntityAdded(msg.sender,_name,_regNo,_etype);\r\n    }\r\n\r\n    function isEntityExist() public view returns (bool){\r\n        if(entities[msg.sender].addrs == address(0))\r\n            return false;\r\n        else \r\n        \treturn true;\r\n    }\r\n\r\n    function getEntity() public view returns (address,bytes32,bytes32,uint,uint){\r\n        require(entities[msg.sender].addrs != address(0));\r\n        return (entities[msg.sender].addrs,\r\n                  entities[msg.sender].name,\r\n                  entities[msg.sender].regNo,\r\n                  uint(entities[msg.sender].etype),\r\n                  entities[msg.sender].personList.length);\r\n    }\r\n\r\n    function enrollPerson(address _person) payable public {\r\n        require(_person != address(0));\r\n        entities[msg.sender].personRoleNo[_person] = entities[msg.sender].personList.length;\r\n        entities[msg.sender].personList.push(_person);\r\n    }\r\n\r\n    function enrollment() public view returns (address[]){\r\n        require(msg.sender != address(0));\r\n        return entities[msg.sender].personList;\r\n    }\r\n}\r\n\r\n\r\n",
  "sourcePath": "G:\\bgc-app1\\contracts\\App.sol",
  "compiler": {
    "name": "solc",
    "version": "0.4.18+commit.9cf6e910.Emscripten.clang"
  },
  "schemaVersion": "1.0.1",
  "updatedAt": "2018-08-14T17:52:59.251Z"
}