{
  "contractName": "Destructible",
  "abi": [
    {
      "constant": false,
      "inputs": [],
      "name": "destroy",
      "outputs": [],
      "payable": false,
      "stateMutability": "nonpayable",
      "type": "function"
    },
    {
      "constant": true,
      "inputs": [],
      "name": "owner",
      "outputs": [
        {
          "name": "",
          "type": "address"
        }
      ],
      "payable": false,
      "stateMutability": "view",
      "type": "function"
    },
    {
      "constant": false,
      "inputs": [
        {
          "name": "newOwner",
          "type": "address"
        }
      ],
      "name": "transferOwnership",
      "outputs": [],
      "payable": false,
      "stateMutability": "nonpayable",
      "type": "function"
    },
    {
      "constant": false,
      "inputs": [
        {
          "name": "_recipient",
          "type": "address"
        }
      ],
      "name": "destroyAndSend",
      "outputs": [],
      "payable": false,
      "stateMutability": "nonpayable",
      "type": "function"
    },
    {
      "inputs": [],
      "payable": true,
      "stateMutability": "payable",
      "type": "constructor"
    },
    {
      "anonymous": false,
      "inputs": [
        {
          "indexed": true,
          "name": "previousOwner",
          "type": "address"
        },
        {
          "indexed": true,
          "name": "newOwner",
          "type": "address"
        }
      ],
      "name": "OwnershipTransferred",
      "type": "event"
    }
  ],
  "bytecode": "0x606060405260008054600160a060020a033316600160a060020a031990911617905561020e806100306000396000f3006060604052600436106100615763ffffffff7c010000000000000000000000000000000000000000000000000000000060003504166383197ef081146100665780638da5cb5b1461007b578063f2fde38b146100aa578063f5074f41146100c9575b600080fd5b341561007157600080fd5b6100796100e8565b005b341561008657600080fd5b61008e610111565b604051600160a060020a03909116815260200160405180910390f35b34156100b557600080fd5b610079600160a060020a0360043516610120565b34156100d457600080fd5b610079600160a060020a03600435166101bb565b60005433600160a060020a0390811691161461010357600080fd5b600054600160a060020a0316ff5b600054600160a060020a031681565b60005433600160a060020a0390811691161461013b57600080fd5b600160a060020a038116151561015057600080fd5b600054600160a060020a0380831691167f8be0079c531659141344cd1fd0a4f28419497f9722a3daafe3b4186f6b6457e060405160405180910390a36000805473ffffffffffffffffffffffffffffffffffffffff1916600160a060020a0392909216919091179055565b60005433600160a060020a039081169116146101d657600080fd5b80600160a060020a0316ff00a165627a7a72305820c1245e26af98d738d85c45bc4eac16e960f9f6cbce686cd25d901427f243ecd90029",
  "source": "pragma solidity ^0.4.18;\nimport \"../ownership/Ownable.sol\";\n\n\n/**\n * @title Destructible\n * @dev Base contract that can be destroyed by owner. All funds in contract will be sent to the owner.\n */\ncontract Destructible is Ownable {\n    function Destructible() public payable{\n    }\n\n    /**\n     * @dev Transfers the current balance to the owner and terminates the contract.\n     */\n    function destroy() onlyOwner public{\n        selfdestruct(owner);\n    }\n\n    function destroyAndSend(address _recipient) onlyOwner public{\n        selfdestruct(_recipient);\n    }\n}\n\n\n",
  "sourcePath": "G:\\bgc-app1\\contracts\\lifecycle\\Destructible.sol",
  "compiler": {
    "name": "solc",
    "version": "0.4.18+commit.9cf6e910.Emscripten.clang"
  },
  "schemaVersion": "1.0.1",
  "updatedAt": "2018-08-14T17:52:58.794Z"
}